:100000000C9463010C948B010C948B010C948B0168
:100010000C948B010C948B010C948B010C948B0130
:100020000C948B010C948B010C9441090C943F0AA5
:100030000C948B010C948B010C948B010C948B0110
:100040000C948B010C948B010C948B010C948B0100
:100050000C948B010C948B010C948B010C94F7087D
:100060000C948B010C948B010C948B010C948B01E0
:100070000C948B010C948B010C948B010C948B01D0
:100080000C948B010C948B010C948B010C948B01C0
:100090000C948B010C948B010C948B010C948B01B0
:1000A0000C948B010C9437070C948B014A0F4D0F65
:1000B000440F470F6B0F560F5F0F650F680F620FEE
:1000C000590F5C0F500F530F6E0FAB05AE059D051A
:1000D000A105A705CF05CF05CF05B205B605BA0521
:1000E000C005C405CF05CA050000000000000000DF
:1000F0002A2B280000000000000000000000000083
:1001000000000000000000002C9EB4A0A1A2A434B6
:10011000A6A7A5AE362D3738271E1F20212223245F
:100120002526B333B62EB7B89F8485868788898AFB
:100130008B8C8D8E8F909192939495969798999A97
:100140009B9C9D2F3130A3AD350405060708090A95
:100150000B0C0D0E0F101112131415161718191A77
:100160001B1C1DAFB1B0B50005010906A1010507B3
:1001700019E029E715002501750195088102050C94
:1001800095017508150026FF00190029FF8100055B
:10019000081901290895087501910205079506754A
:1001A00008150026E700190029E78100C0000000BB
:1001B00000240027002A002D003000000000002548
:1001C0000028002B002E0031000000000023002634
:1001D0000029002C002F0004040404040304050279
:1001E00002020204030202020206060606060604D2
:1001F000040202020404040802011040804010209E
:1002000040804080080204018040201002011080DC
:1002100010204040200000000200090F00000304ED
:1002200001000C00000000000000000000000000C1
:1002300000000000050C0901A1018504150026FF3E
:100240000319002AFF03950475108100C0080B00F4
:10025000020202010009040000010202000005245C
:1002600000100105240101010424020605240600F2
:10027000010705810310004009040100020A000083
:100280000007050202400000070583024000000449
:1002900003090412010002EF0201404123368000ED
:1002A000010102030141726475696E6F204C4C4379
:1002B0000041726475696E6F204C656F6E61726487
:1002C0006F00E517D51711241FBECFEFDAE0DEBFB0
:1002D000CDBF28E0ACE0B5E001C01D92A53EB2075D
:1002E000E1F715E0A0E0B1E0E6EBF3E402C0059031
:1002F0000D92AC30B107D9F711E0C2E6D1E004C0ED
:100300002197FE010E94851FC136D107C9F70E94BF
:10031000B90D0C94CE210C940000CF92DF92EF9295
:10032000FF920F931F93CF93DF936C017A018B01A0
:10033000C0E0D0E0CE15DF0589F0D8016D918D01C8
:10034000D601ED91FC910190F081E02DC601099557
:10035000892B11F47E0102C02196ECCFC701DF91F9
:10036000CF911F910F91FF90EF90DF90CF90089564
:10037000DC01FB0112968C91129790E0248135816B
:1003800082179307D1F491818081813A31F481E021
:10039000913091F0933089F411C0813271F49B3027
:1003A00021F482811F968C9305C09A3031F48281AA
:1003B00050968C9381E00895089580E00895DC01C3
:1003C000FB0188E4808389E4818384E482831D9631
:1003D0009C911D979F709F5B93831D968D919C911F
:1003E0001E9724E0969587952A95E1F78F708F5B8D
:1003F000848385E00895FC0134969C01245F3F4F7F
:1004000080E090E04081411101961192E217F307DC
:10041000C9F70895FC0120E2260F2830F0F0DC0136
:10042000169620E030E08D91442349F0861304C0F5
:10043000E20FF31F668326C0811107C0F9CF861330
:1004400004C0E20FF31F16821DC02F5F3F4F2630FE
:10045000310549F780E090E008953481442349F064
:1004600081E090E001C0880F2A95EAF7832B84830E
:1004700009C041E050E001C0440F2A95EAF74095D9
:100480004323448381E090E00895FC0182818F5BE7
:10049000FB01808381E00895089580E090E0089555
:1004A0000E94B921EF92FF920F931F93CF93DF9396
:1004B000FB012081213851F52381223239F5DC01FD
:1004C00012962C9130E04481558142175307F1F484
:1004D000EC010B851C85E12CF12C0115110591F027
:1004E000F801448155816281738180E80E94E609A8
:1004F0008F3FFFEF9F0769F0E80EF91ED8010D91BD
:100500001C91EBCF81E08F87C70105C080E090E0B0
:1005100002C08FEF9FEFDF91CF911F910F91FF905E
:10052000EF900895CF93DF93CDB7DEB769970FB6FD
:10053000F894DEBF0FBECDBFFC01DB018C918F5F55
:100540008C93BE016F5F7F4F89E1DB011D928A951D
:10055000E9F729E0298384E08A8391E09D8383E0A1
:100560008E832A8721E22B879C879D879F8722E2A3
:10057000288B27E02B8B25E02C8B8E8B20E430E022
:10058000388F2F8B998F82818B8395858685998B68
:100590008A8B838180688D8B49E150E080E00E94E6
:1005A000E60969960FB6F894DEBF0FBECDBFDF91A6
:1005B000CF910895FB0120812138B9F423812232A3
:1005C000A1F4DC0112962C91129730E04481558100
:1005D0004217530751F421E057962C9345E450E01D
:1005E00068E671E080E80C94E60980E090E0089508
:1005F000CF93DF93CDB7DEB769970FB6F894DEBF20
:100600000FBECDBFFC01DB019C919F5F9C93BE019F
:100610006F5F7F4F89E1DB011D928A95E9F729E041
:10062000298384E08A8391E09D8383E08E839F8386
:1006300098872A8721E22B879C879D879F8722E2C4
:10064000288B25E4298B27E02B8B25E02C8B8E8BA8
:1006500020E430E0388F2F8B998F82818B838381C8
:1006600080688D8B49E150E080E00E94E609699640
:100670000FB6F894DEBF0FBECDBFDF91CF910895C6
:10068000CF93DF93EC01FB018A8190E024813581D7
:100690008217930709F04AC081819081913A69F4E9
:1006A000813009F441C0833011F48F8903C0823056
:1006B000E9F5888D8093F10037C09132B9F58B3020
:1006C00019F482818F8B30C08A3019F48281888F2F
:1006D0002BC0893059F5668177818381833079F425
:1006E0008C8D9D8D6817790709F58A8D9B8D0E94E9
:1006F000B3098C8D9D8D90689D8F8C8F15C0823035
:1007000041F46130710591F461E070E0CE014996E9
:1007100009C0813059F46830710541F468E070E037
:10072000CE010E960E94B30981E001C080E0DF9106
:10073000CF910895EF92FF920F931F93CF93DF9382
:10074000EC01198218821B821A821D821C8261159B
:100750007105A9F17B01FB0101900020E9F73197B8
:100760008F01061B170BB8016F5F7F4F80E090E091
:100770000E94EF20009759F0998388831B830A8396
:100780002C813D81232B81F4FC0110820DC08881D6
:100790009981009711F00E945720198218821D82BA
:1007A0001C821B821A820BC01D830C83B701DF9150
:1007B000CF911F910F91FF90EF900C94C721DF9183
:1007C000CF911F910F91FF90EF900895CF93DF93FA
:1007D000FC01DB01C281D381209719F4738362830A
:1007E00008C088859985009711F0EC01FACFB98788
:1007F000A887808112968C931297818113968C938F
:100800001397908115968C911597890F808380E0BE
:1008100014969C911497891788F41696CD91DC91C3
:100820001797C80FD11D9881C181D0E0C050DF4F0C
:10083000988391819F5F91838F5FEACF81E0DF9101
:10084000CF91089580912F0581110DC082E0809392
:100850002B0584E080932C0510922E0510922D0517
:1008600081E080932F058BE295E00895CF93DF938D
:10087000EC0181E08C838D839E01265F3F4F3F8397
:100880002E83198618862DE131E0398328831C8652
:100890001B861E861D868F87888B81EC8A870E9427
:1008A0002204FC0141812C8130E0240F311D2830CD
:1008B00031052CF4BE01DF91CF910C94E603DF915A
:1008C000CF910895EF92FF920F931F93CF93DF93F1
:1008D0001F92CDB7DEB78B017A018091AA058111F5
:1008E00007C089E995E00E94360481E08093AA055B
:1008F00084E0898341E050E0BE016F5F7F4F8091CB
:100900009C050E94690C97FD07C080919C05A7017A
:10091000B80180640E94690C0F90DF91CF911F9104
:100920000F91FF90EF900895E091C605F091C705F3
:100930000084F185E02D86EC95E00995892B51F036
:10094000E091C605F091C7050284F385E02D86ECA1
:1009500095E009950E94D00510920C0510920D05A6
:1009600010920E0510920F051092100510921105AD
:1009700010921205109213050895809115058111AA
:1009800004C080911405882321F084E593E00E943F
:10099000FD0561E089E00E9407076AEF70E080E0F2
:1009A00090E00E942D0860E089E00E940707809196
:1009B0001505811104C080911405882341F08EE74C
:1009C00093E00E94FD0581ED91E00C94FD050895F2
:1009D000EF92FF920F931F93CF93DF93E62FF0E0F8
:1009E000E038F10540F021E030E0DC0113963C9363
:1009F0002E93129722C0D42F7C01E851FF4FC4914F
:100A0000DC01ED91FC916C2F6F770484F585E02D6E
:100A100009958C01C7FF13C0892B11F4D1110DC0AA
:100A2000D701ED91FC910484F585E02D4D2F61EE09
:100A3000C7010995802B912B02C080E090E0DF91E7
:100A4000CF911F910F91FF90EF900895FF920F9318
:100A50001F93CF93DF93EC01F62E41E00E94E80450
:100A60008C01892BA9F0E881F9810284F385E02DBE
:100A7000CE01099540E06F2DCE010E94E804892B3C
:100A800039F0E881F9810284F385E02DCE010995E2
:100A9000C801DF91CF911F910F91FF900895CF92E0
:100AA000DF92EF92FF92CF93DF93EC01072E000CC1
:100AB000880B990B0E94D01C6B017C0120E030E078
:100AC00040E45FE30E942F1D20E030E048E452E460
:100AD0000E94AB1E0E941D1FC617D707D4F020E04E
:100AE00030E040EA5FE3C701B6010E942F1D20E01D
:100AF00030E048E452E40E94AB1E20E030E040E8E1
:100B00005FE30E943F1E0E941D1F21E06C177D07BE
:100B10000CF420E0822F90E0DF91CF91FF90EF90D6
:100B2000DF90CF90089590E0FC013197EF30F10510
:100B3000B0F5EB59FF4F0C94851F809180008F77A3
:100B400003C0809180008F7D809380000895809104
:100B50008000877FF9CF84B58F7702C084B58F7D01
:100B600084BD0895809190008F7707C08091900098
:100B70008F7D03C080919000877F809390000895BF
:100B80008091C0008F7703C08091C0008F7D8093DB
:100B9000C00008958091C200877F8093C2000895AD
:100BA00088E0E4EBF5E0DF011D928A95E9F7E0913A
:100BB000B205F091B3050190F081E02D48E050E0DE
:100BC00064EB75E082EB95E00994BC01009791F02D
:100BD000FC0101900020E9F73197AF01481B590B48
:100BE000E0914905F0914A050280F381E02D89E406
:100BF00095E0099480E090E008950C94E5058F92CB
:100C00009F92AF92BF920F931F93CF93DF93CDB775
:100C1000DEB7A1970FB6F894DEBF0FBECDBF19A205
:100C2000423008F44AE08E010F5D1F4F842E912C54
:100C3000A12CB12CA50194010E94631FE62FB901DC
:100C4000CA0101501109EA3014F4E05D01C0E95C09
:100C5000D801EC93232B242B252B61F7C8010E948C
:100C6000E505A1960FB6F894DEBF0FBECDBFDF91AC
:100C7000CF911F910F91BF90AF909F908F9008954B
:100C80008F929F92AF92BF92CF92DF92EF92FF929C
:100C90000F931F93CF93DF93FC01C081D1812091EB
:100CA000450530914605C217D3070CF04BC09E0195
:100CB000220F331FE0914305F0914405E20FF31F2B
:100CC00080809180C170DD27F1E0CF27209719F453
:100CD00004E610E002C00CE91FEF7A015B016C0131
:100CE000040F151FB801C4010E944F05892B99F408
:100CF0000E0D1F1DB801C4010E944F05892B71F410
:100D0000B8016E0D7F1DC4010E944F05892BE9F0CB
:100D100023E030E005C021E030E002C022E030E016
:100D2000F501808191810196821793073CF0F501CE
:100D300011821082F60180819181019691838083D6
:100D4000CE0105C081E090E002C08FEF9FEFDF9100
:100D5000CF911F910F91FF90EF90DF90CF90BF90B8
:100D6000AF909F908F900895FC018091380581117C
:100D700003C08FEF9FEF08959FB7F89482E08093B0
:100D8000E9002091F20030E01216130614F421E07D
:100D900030E02115310559F0289884E68093370515
:100DA0008091F10080838091F200882319F09FBF29
:100DB000C90108958BE68093E800F9CFCF93DF93C4
:100DC000282F30E0F901EB5EFD4F8491F901EA50E4
:100DD000FE4FD491F901E952FE4FC491CC2391F01A
:100DE00081110E949305EC2FF0E0EE0FFF1FE753F7
:100DF000FE4FA591B491EC91ED2381E090E021F4B8
:100E000080E002C080E090E0DF91CF9108951F93D1
:100E1000CF93DF93282F30E0F901EB5EFD4F8491F3
:100E2000F901EA50FE4FD491F901E952FE4FC49105
:100E3000CC23C9F0162F81110E949305EC2FF0E00E
:100E4000EE0FFF1FE554FE4FA591B4918FB7F894B4
:100E5000111105C09C91ED2FE095E92302C0EC91A2
:100E6000ED2BEC938FBFDF91CF911F9108951F92CF
:100E70000F920FB60F9211242F933F934F935F93CE
:100E80006F937F938F939F93AF93BF93EF93FF9352
:100E90008091DB050E94DE062091DF053091E005A0
:100EA0002F5F3F4F3093E0052093DF059091DE05E3
:100EB000953618F096E09093DA059091DA05943023
:100EC000C9F128F4923069F09330D1F05EC09530CA
:100ED00009F451C0963009F058C091E09093AB06E8
:100EE00051C0811152C02091DF053091E0052436B8
:100EF000310508F442C01092AB061092DE051CC00A
:100F0000813009F042C0E091DE0591E09E0F9093A0
:100F1000DE05F0E02091DF053091E005EE0FFF1FC8
:100F2000E652FA4F308727831092E0051092DF05D2
:100F300094E029C0811117C0E091DE0591E09E0F79
:100F40009093DE05F0E02091DF053091E005EE0F93
:100F5000FF1FE652FA4F308727831092E005109268
:100F6000DF0593E010C02091DF053091E0052536C4
:100F7000310558F007C0811108C01092E0051092A9
:100F8000DF0503C095E09093DA059091DD05992384
:100F9000B9F081110AC08091DC05882321F080918D
:100FA000DC0561E009C02D9A0BC08091DC05882327
:100FB00031F08091DC0560E00E94070701C02D98A8
:100FC000FF91EF91BF91AF919F918F917F916F9121
:100FD0005F914F913F912F910F900FBE0F901F90F7
:100FE0001895CF93DF9390E0FC01EA50FE4F2491D7
:100FF000FC01E952FE4F8491882361F190E0880F53
:10100000991FFC01E355FE4FC591D491FC01E554B5
:10101000FE4FA591B491611109C09FB7F8948881E2
:10102000209582238883EC912E230BC0623061F4DB
:101030009FB7F8943881822F809583238883EC9121
:101040002E2B2C939FBF06C08FB7F894E8812E2BD0
:1010500028838FBFDF91CF9108958F929F92AF9297
:10106000BF92CF92DF92EF92FF926B017C010E94C0
:10107000D2084B015C01C114D104E104F104F1F088
:101080000E94D208DC01CB0188199909AA09BB0981
:10109000883E9340A105B10570F321E0C21AD10842
:1010A000E108F10888EE880E83E0981EA11CB11CAF
:1010B000C114D104E104F10419F7DDCFFF90EF90E2
:1010C000DF90CF90BF90AF909F908F900895409108
:1010D000D9085091DA082091D7083091D8084217E2
:1010E0005307B4F49091E8009570E1F39091E80013
:1010F00092FD19C08093F1008091D9089091DA088F
:1011000001968F739927892B19F48EEF8093E8004D
:101110008091D9089091DA0801969093DA0880932B
:10112000D90881E0089580E00895CF92DF92EF9290
:10113000FF920F931F93CF93DF931F92CDB7DEB72C
:10114000182F062FE42E862F880F8E5F99830E941A
:10115000670883E00E946708F12EC12E9981D92E7D
:101160008C2D8F19801798F4F601E7FE02C0849148
:1011700001C080810E946708182F80E00E946708E4
:101180008123FFEFCF1ADF0A8111EACF01C081E08E
:101190000F90DF91CF911F910F91FF90EF90DF9013
:1011A000CF9008953FB7F8948091DD089091DE08C4
:1011B000A091DF08B091E00826B5A89B05C02F3F9D
:1011C00019F00196A11DB11D3FBFBA2FA92F982F6D
:1011D0008827820F911DA11DB11DBC01CD0142E0E8
:1011E000660F771F881F991F4A95D1F708951F92A0
:1011F0000F920FB60F9211242F933F938F939F93CB
:10120000AF93BF938091D3089091D408A091D50853
:10121000B091D6083091DC0823E0230F2D3720F45D
:101220000196A11DB11D05C026E8230F0296A11D40
:10123000B11D2093DC088093D3089093D408A09329
:10124000D508B093D6088091DD089091DE08A09172
:10125000DF08B091E0080196A11DB11D8093DD0863
:101260009093DE08A093DF08B093E008BF91AF91A0
:101270009F918F913F912F910F900FBE0F901F90D4
:1012800018951F920F920FB60F9211248F939F9370
:101290008091E1009091E100937F9093E10083FFC2
:1012A0000FC01092E90091E09093EB001092EC00D7
:1012B00092E39093ED001092380598E09093F0003F
:1012C00082FF20C093E09093E9009091F20099236F
:1012D00019F09AE39093E8009091DB08992339F094
:1012E0009091DB0891509093DB08992389F19091BC
:1012F0003705992339F09091370591509093370530
:10130000992341F184FF10C08091E2008E7E8160BC
:101310008093E2008091E1008F7E8093E1008091D4
:10132000D2088E7E806111C080FF16C08091E200DD
:101330008E7E80618093E2008091E1008E7E8093BA
:10134000E1008091D2088E7E81608093D20804C033
:101350005D9ACDCF289AD6CF9F918F910F900FBED7
:101360000F901F901895BF92CF92DF92EF92FF924D
:101370000F931F93CF93DF936C018B01EB019BEFD6
:10138000B92E2097C1F07E01C134D1051CF080E454
:10139000E82EF12C8091E80082FFFCCFC8018C1B65
:1013A0009D0B6E2D8C0D9D1D0E94AC0DB092E80022
:1013B000CE19DF09E6CFC801DF91CF911F910F91C0
:1013C000FF90EF90DF90CF90BF900895DF92EF9263
:1013D000FF920F931F93CF93DF93D82E8A017B0147
:1013E000E40EF51EEB01CE15DF0571F0D7FE03C04C
:1013F000FE01849101C088810E94670821968111B5
:10140000F2CF8FEF9FEF01C0C801DF91CF911F9105
:101410000F91FF90EF90DF9008950F931F93CF935C
:10142000DF931F92CDB7DEB782E0898342E450E0BC
:101430006DE472E080E80E94E6090E942204DC016B
:1014400012960D911C9113970115110569F0D801A1
:10145000ED91FC910280F381E02DBE016F5F7F4F23
:10146000C801099597FF07C089810F90DF91CF913F
:101470001F910F910895F80100851185E5CF1F9206
:101480000F920FB60F921124CF92DF92EF92FF923C
:101490000F931F932F933F934F935F936F937F937C
:1014A0008F939F93AF93BF93EF93FF93CF93DF936C
:1014B000CDB7DEB76C97DEBFCDBF1092E90080914B
:1014C000E80083FFE7C168E0CE0145960E94AC0DBD
:1014D00082EF8093E8008D8987FF05C09091E80036
:1014E00090FFFCCF03C09EEF9093E800982F90767A
:1014F00009F0C6C09E892F89188D91110CC08038C3
:1015000029F48091D1088093F10002C01092F1007B
:101510001092F10042C1422F50E0512B913051F412
:1015200081113BC14130510509F037C18091D1088B
:101530008D7F0BC0933061F481112FC14130510573
:1015400009F02BC18091D10882608093D10825C118
:10155000953041F48091E80080FFFCCF2068209313
:10156000E3001BC1963009F05FC0EB8CFC8C10923D
:10157000E9001092DA081092D908123091F5109211
:10158000D8081092D7080E940D0A99E0BE016F5F3B
:101590007F4FDB01E92F1D92EA95E9F799831A83C2
:1015A00091E09E8390EA98879AEF99872091D908D5
:1015B0003091DA08275F3F4F3C832B838D83109255
:1015C000E9001092DA081092D908F092D808E09257
:1015D000D70849E050E080E00E94E6090E940D0A29
:1015E000DCC0F092D808E092D7080E942204DC0107
:1015F0001296ED90FC901397E114F10409F4BAC02F
:10160000D701ED91FC910480F581E02DBE016B5E68
:101610007F4FC7010995009719F00CF0BEC0C1C0FB
:10162000F701E084F184E8CF973009F4BAC098302C
:1016300021F481E08093F100B0C0993009F0ADC091
:10164000837009F0AEC0E1E0F1E081E021E036E333
:101650009081992361F08093E9002093EB009191B0
:101660009093EC003093ED008F5F873089F78EE721
:101670008093EA001092EA008F89809338058DC02C
:101680008B8D9C8D1092E9001092DA081092D90887
:101690009093D8088093D708898D811150C08E8986
:1016A0009D89913A59F4813209F07BC047E050E0BE
:1016B0006BE071E080E00E94E6096FC0913209F0B2
:1016C00070C0833289F4888D90E0982F88272F8905
:1016D000822BA0E0B0E08093070190930801A093D3
:1016E0000901B0930A0159C0803239F467E070E013
:1016F0008BE091E00E94B30906C0823209F04DC030
:101700008F89809312018091D008882319F0EEEF21
:10171000FAE002C0E0E0F8E080910B0190910C014A
:10172000A0910D01B0910E01803B9440A105B1053F
:1017300009F07BC08091120180FF93C076C00E94A7
:101740002204DC0112960D911C91139701151105CD
:1017500041F1D801ED91FC910190F081E02DBE01A5
:101760006B5E7F4FC8010995811117C0F801008594
:101770001185ECCF113009F44EC0133091F48F89EC
:10178000882309F445C0823081F440E860E181EBB0
:1017900092E00E949508882321F08EEF8093E80064
:1017A00079C081E28093EB0075C0813029F440E874
:1017B0006BE085EA92E0EDCF833099F70E94220436
:1017C000DC011296ED90FC9013978E010F5F1F4F76
:1017D0006801E114F10479F0D701ED91FC910680E4
:1017E000F781E02DB801C7010995080F111DF70118
:1017F000E084F184EECFD8011C92F6010190002024
:10180000E9F73197BF016C197D0940E0C601C1CFEE
:101810006FE872E002C063E972E06115710509F2D8
:10182000FB01449150E080E846CF0FB6F894A895AC
:1018300080916000886180936000109260000FBE0C
:10184000A895EE3F2AE0F20739F08091FE0A9091C8
:10185000FF0A91838083A1CF1092FF0A1092FE0AA3
:101860009CCFEE3F8AE0F80731F080819181909320
:10187000FF0A8093FE0A87E797E7918380839BE0C6
:1018800088E10FB6F894A895809360000FBE9093FE
:10189000600083CF6C960FB6F894DEBF0FBECDBF4D
:1018A000DF91CF91FF91EF91BF91AF919F918F9178
:1018B0007F916F915F914F913F912F911F910F9168
:1018C000FF90EF90DF90CF900F900FBE0F901F9082
:1018D00018957F928F929F92AF92BF92CF92DF9294
:1018E000EF92FF920F931F93CF93DF93C82E8B013C
:1018F0007A0180913805811103C08FEF9FEF75C089
:101900008091D20880FF05C08091E00082608093C2
:10191000E000CE2DDF2DD12C8AEF882E8C2D877004
:10192000B82E8C2D8072A82E8C2D8074982E9AE360
:10193000792E209709F452C08C2D0E94960D282FE5
:1019400081110AC08A948820C1F261E070E080E0D1
:1019500090E00E942D08EDCF90E0C817D9070CF455
:101960002C2F3FB7F894B092E9008091E80085FFF2
:1019700033C0822F90E0C81BD90BAA2029F0215038
:10198000A8F01092F100FBCFF801C7FE07C021506C
:1019900058F044914093F1003196F9CF215020F056
:1019A00041914093F100FACF080F191FDD2019F083
:1019B0007092E8000AC08091E80085FD08C070922E
:1019C000E800DD24D394209739F0D12C05C020976E
:1019D00019F491107092E8003FBFABCFD110ACCF9B
:1019E0005D9884E68093DB08C701DF91CF911F915A
:1019F0000F91FF90EF90DF90CF90BF90AF909F90AE
:101A00008F907F900895CF93DF931F92CDB7DEB76D
:101A10006983DC01ED91FC910280F381E02D41E0CE
:101A200050E0BE016F5F7F4F09950F90DF91CF911E
:101A3000089583E08093E9008091F200882319F0F3
:101A40008AE38093E8000895FC018485958597FDDD
:101A50000BC09FB7F89482E08093E9008091F20078
:101A60009FBF90E0019608959FB7F89482E080931D
:101A7000E9008091F2009FBF90E00895CF93DF933B
:101A8000EC0180911201882331F083E00E94690CFF
:101A90001816190634F081E090E09B838A8380E079
:101AA00090E0DF91CF910895CF93DF931F92CDB750
:101AB000DEB7FC018485958597FD05C02FEF3FEFCC
:101AC000358724870BC0CE0101960E94B40601978A
:101AD00019F4898190E002C08FEF9FEF0F90DF91A2
:101AE000CF9108950F931F93CF93DF931F92CDB79C
:101AF000DEB78C01FC018485958597FF0EC0CE0171
:101B000001960E94B406019719F4298130E002C0C1
:101B10002FEF3FEFF80135872487F80184859585FD
:101B20000F90DF91CF911F910F9108952FB7F894E7
:101B300087708093E9009091E800892F807295FF6B
:101B400004C09091F20080E4891B2FBF089583E0C8
:101B50000E94960D90E00895615030F02091F100C0
:101B6000FC0120830196F8CF289884E680933705FE
:101B70000895CF93DF93CDB7DEB72C970FB6F894C7
:101B8000DEBF0FBECDBF789484B5826084BD84B5BE
:101B9000816084BD85B5826085BD85B5816085BD68
:101BA00080916E00816080936E0010928100809120
:101BB00081008260809381008091810081608093A8
:101BC00081008091800081608093800080919100ED
:101BD0008260809391008091910081608093910058
:101BE000809190008160809390008091C10084601A
:101BF0008093C1008091C10082608093C100809178
:101C0000C10081608093C1008091C3008160809396
:101C1000C3008091C00082608093C0008091C200A8
:101C200081608093C20080917A00846080937A0002
:101C300080917A00826080937A0080917A0081603E
:101C400080937A0080917A00806880937A00109265
:101C500038051092D1081092D2088091D700816087
:101C60008093D70080EA8093D80089B5806189BDD0
:101C700089B5826089BD09B400FEFDCF61E070E0E6
:101C800080E090E00E942D088091D8008F7C8061D8
:101C90008093D8008091E000807F8093E000809165
:101CA000E1008E7E8093E1008DE08093E200559A02
:101CB000209AEEEFFFE7859194918B3F9C4D19F4AC
:101CC00081E08093D00860E089E00E94070761E02E
:101CD00089E00E94F10760E085E00E94F107E09151
:101CE000C605F091C7050084F185E02D86EC95E0EE
:101CF0000995E091C605F091C7050284F385E02DB2
:101D000086EC95E009950E94D0058FEF9FEF9093A8
:101D100056058093550589E691E00E94FD0589E905
:101D200091E00E94FD054AE061E070E080E090E013
:101D30000E94FF05E0914905F0914A050190F0816C
:101D4000E02D6EE289E495E009954AE060E070E0FC
:101D5000CB010E94FF054AE060E070E0CB010E94E9
:101D6000FF0580E092E00E94FD0582EB91E00E9479
:101D7000FD05F8941092C00081E08093C10010929C
:101D8000C2001092C3001092C40083E08093BF0091
:101D900080E28093D1001092BF001092BF00109299
:101DA000BE0084E080937200789482E08093DA052C
:101DB0001092DE058091DB0560E00E94F1078AEC5D
:101DC00091E00E94FD0581ED91E00E94FD05442413
:101DD0004A94542C320110E2212E312C89E495E0F2
:101DE0000E94240D181619060CF093C089E495E0A2
:101DF0000E94540D80932605863599F03CF4843476
:101E0000B1F0813559F08F33C1F083C0813731F0A3
:101E1000863739F0843609F07CC009C01092150568
:101E200003C081E0809315051092140572C081E013
:101E300080931405109215056CC089E691E00E940C
:101E4000FD0582E092E00E94FD0581ED91E00E9497
:101E5000FD0587E192E00E94FD0583E292E00E9489
:101E6000FD0589E292E00E94FD05E0911605F091E2
:101E700017053197EF30F10520F4EA5AFF4F0C9423
:101E8000851F83E492E02CC08BE492E029C08FE4AC
:101E900092E026C084E592E023C088E592E020C06D
:101EA0008CE592E01DC081E692E01AC087E692E0E0
:101EB00017C08BE692E014C081E792E011C08CE776
:101EC00092E00EC084E892E00BC087E892E008C080
:101ED0008FE892E005C08CE992E002C086EA92E0C9
:101EE0000E94FD058CEA92E00E94FD0560911A05B2
:101EF00070911B0580911C0590911D0540E10E9489
:101F0000FF058FEF91E00E94FD0581ED91E00E94B9
:101F1000FD0521EE35E03093440520934305809183
:101F2000DE0590E090934605809345058091AB06D1
:101F300090E090934805809347058091DA058530BD
:101F400009F0F4C48091E3059091E4058858910963
:101F50008D35910588F48091DE05843041F48091BF
:101F6000E5059091E6058097479708F400C28091B7
:101F7000DE05843408F0E2C18091DE058A3108F480
:101F80004FC08091E1059091E205843F914068F453
:101F9000109242051092410540923D0550923E0537
:101FA00060923F057092400559C08091E305909181
:101FB000E40585974B97A0F5E7EEF5E082E090E029
:101FC000C12CD12C7601AC014F5F5F4F2091DE0513
:101FD00030E0421753075CF4DF0112972D913C91DA
:101FE000275031092730310508F40BC2CA01019787
:101FF0009595879590934205809341050C972CF415
:1020000010924205109241050BC0C0923D05D0923E
:102010003E05E0923F05F092400584E090E018C351
:102020008091DE058A3108F44CC08091E1059091E1
:10203000E2058032934008F4ABCF8091E3059091A4
:10204000E405C697869708F4F9C13BC0C0923D05E8
:10205000D0923E05E0923F05F09240058BE090E083
:10206000F7C220813181255231092B31310508F029
:10207000F5C1CC0CDD1CEE1CFF1C6894C0F8029668
:102080003496AC014F5F5F4F2091DE0530E0421780
:10209000530754F4DF0112972D913C912C503109D4
:1020A0002B303105F0F2CA010197959587959093F1
:1020B0004205809341050C974CF610924205109210
:1020C00041058091DE05823208F44DC08091E30520
:1020D0009091E4050697079708F045C0E7EEF5E014
:1020E00082E090E0C12CD12C76019C012F5F3F4F04
:1020F0004091DE0550E024173507E4F4DF01129724
:102100004D915C9111974E5151094731510508F09D
:10211000B2C1CC0CDD1CEE1CFF1C6894C0F84081E1
:1021200051813496435051094530510510F40296BF
:10213000DCCFC901019795958795909342058093CF
:10214000410540972CF410924205109241050BC0B6
:10215000C0923D05D0923E05E0923F05F0924005C9
:102160008CE090E075C21C821B82E1E0F0E0FA8313
:10217000E9838091DE058D3008F46FC049E753E0B4
:10218000BE016D5F7F4FCE0101960E944006892BF4
:1021900009F063C049E753E0BE016D5F7F4FCE0198
:1021A00001960E944006019709F057C049E753E0A5
:1021B000BE016D5F7F4FCE0101960E944006892BC4
:1021C00009F04BC0812C912C540100E010E080916B
:1021D000DE0590E029813A81281739075CF549E747
:1021E00053E0BE016D5F7F4FCE0101960E94400615
:1021F0007C0149E753E0BE016D5F7F4FCE01019640
:102200000E944006F1E0EF16F10449F4892B29F50C
:10221000880C991CAA1CBB1C689480F808C0EF2885
:10222000E1F40197D1F4880C991CAA1CBB1C0F5F28
:102230001F4FCDCF109342050093410580923D057D
:1022400090923E05A0923F05B092400521E030E01B
:1022500030933A0520933905FFC11C821B8281E02F
:1022600090E09A83898380914505909146051816E0
:1022700019060CF058C0E0914305F091440582E046
:1022800090E09A8389838281938189974E9708F0A1
:102290004AC0A3E0B0E0BA83A983848195810B97FB
:1022A0000A9708F040C04CEB51E0BE016D5F7F4FD4
:1022B000CE0101960E944006892BA9F54CEB51E016
:1022C000BE016D5F7F4FCE0101960E9440060197CF
:1022D00051F5812C912C540100E010E029813A81C4
:1022E0008091450590914605281739070CF006C1E5
:1022F0004CEB51E0BE016D5F7F4FCE0101960E9415
:1023000040066C010330110509F0C2C04CEB51E0EE
:10231000BE016D5F7F4FCE0101960E944006C81638
:10232000D90609F4B5C0E0914305F09144058281D6
:102330009381C697869708F4F0C04BC18091E5055C
:102340009091E605825491098E9708F015CE80E0B1
:1023500090E040E050E0BA01FC01E951FA4F2081E1
:1023600031812950310929303105E0F005CE8091C5
:10237000E7059091E8050997099708F0F8CD1092C4
:1023800042051092410540923D0550923E056092F3
:102390003F0570924005E3E0F0E0F0933A05E093EA
:1023A00039055AC1FC01E751FA4F2081318127518B
:1023B000310922313105C0F4440F551F661F771FC4
:1023C000416004968038910539F63092420520929A
:1023D000410540933D0550933E0560933F05709342
:1023E000400583E090E034C12081318126503109DD
:1023F0002730310508F0C0CD440F551F661F771FE9
:10240000E0CF20813181235131092F30310548F44B
:10241000CC0CDD1CEE1CFF1C6894C0F802963496B0
:10242000D2CD208131812A5031092930310508F07F
:10243000F7CDCC0CDD1CEE1CFF1CF0CF8091E50528
:102440009091E605C697869708F03BCEE9EEF5E059
:1024500083E090E0C12CD12C760113CE2081318114
:102460002C5031092A30310508F02BCECC0CDD1C64
:10247000EE1CFF1C04CE4D915C914C5051094B3029
:10248000510508F070CECC0CDD1CEE1CFF1C47CEB5
:102490004CEB51E0BE016D5F7F4FCE0101960E9473
:1024A00040067C010330110569F44CEB51E0BE019C
:1024B0006D5F7F4FCE0101960E944006E816F90637
:1024C00009F031CFC114D10459F4EA94EF2809F08E
:1024D0002ACF880C991CAA1CBB1C689480F80BC0DE
:1024E000CA94CD2809F01FCFEF2809F01CCF880C23
:1024F000991CAA1CBB1C0F5F1F4FF0CE1093420506
:102500000093410580923D0590923E05A0923F05C3
:10251000B092400582E090E09BC0848195814B970A
:10252000459708F056C0DF0116967F0116ECE10EC4
:10253000F11C20E030E040E050E060E070E080E03E
:1025400090E0CD90DC90119719E0C11AD10818E005
:10255000C116D104F0F51296CD90DC90139711E1DD
:10256000C11AD1081DE0C116D10420F501E00E9476
:102570008B1F21601496AE15BF0519F720933D05FA
:1025800030933E0540933F055093400500E20E9482
:10259000A61F20933B0530933C0585E090E0909387
:1025A0003A058093390580E390E09093420580934B
:1025B000410552C01296CD90DC90139714E0C11AD9
:1025C000D10815E0C116D10420F401E00E948B1F50
:1025D000D1CF8091DE05893340F082819381895784
:1025E00091098335910508F4EFC28091DE058232AE
:1025F00009F4D5C182819381895791098335910569
:1026000008F45DC3828193818C549109C59708F0C9
:10261000D2C18091DE05843009F0C8C184819581E2
:102620008097479708F0C2C18681978109970997DB
:1026300008F0BCC1109242051092410540923D0540
:1026400050923E0560923F057092400587E090E011
:1026500090933A058093390580911505811104C046
:1026600080911405882321F081ED91E00E94FD0501
:102670008091390590913A05029709F03CC180910B
:102680003D0590913E05A0913F05B09140059F7793
:1026900080933D0590933E05A0933F05B093400580
:1026A00040912705509128056091290570912A05D0
:1026B00084179507A607B70711F00E94940440916C
:1026C0003D0550913E0560913F05709140054932AE
:1026D00034E053073FE0630730E8730709F445C06F
:1026E0004A3284E058078FE0680780E8780709F0ED
:1026F00076C085E00E94DE06209115050197E1F481
:10270000211104C080911405882399F082EB92E096
:102710000E94FD0560913D0570913E0580913F0549
:102720009091400540E10E94FF0581ED92E00E94FA
:10273000FD050E94BD04DFC0211105C08091140574
:10274000882309F4D8C08CEB92E00E94FD056091CB
:102750003D0570913E0580913F059091400540E117
:102760000E94FF0584EE92E037C085E00E94DE06FD
:1027700020911505892BC1F4211104C08091140505
:102780008823B9F284E093E00E94FD0560913D0545
:1027900070913E0580913F059091400540E10E9477
:1027A000FF0583E293E0C3CF211105C0809114059A
:1027B000882309F4A0C08FE093E00E94FD0560919A
:1027C0003D0570913E0580913F059091400540E1A7
:1027D0000E94FF0585E393E00E94FD058CC0EDEAB1
:1027E000F6E080E090E000811181228133810417BE
:1027F00015072607370709F078C04091100550915A
:1028000011056091120570911305452B462B472B3E
:1028100009F057C02DE0289FF001299FF00D1124E9
:10282000E355F94F8481811113C041E0658186EC45
:1028300095E00E94E804892B89F1E091C605F091AA
:10284000C7050284F385E02D86EC95E0099526C046
:10285000813021F525813681E4EBF5E080E090E0E0
:10286000419151910196452B41F4880F991FFC012C
:10287000EE54FA4F3183208303C08430910581F7F1
:10288000E091B205F091B3050190F081E02D48E0B0
:1028900050E064EB75E082EB95E009952FB7F89472
:1028A0008091D3089091D408A091D508B091D60812
:1028B0002FBF80930C0590930D05A0930E05B09348
:1028C0000F052FB7F8948091D3089091D408A09168
:1028D000D508B091D6082FBF8093100590931105AD
:1028E000A0931205B093130506C001963D96893258
:1028F000910509F078CF80913D0590913E05A0911A
:102900003F05B09140058093270590932805A0933B
:102910002905B0932A0582E08093DA051092DE053E
:1029200011C082E08093DA051092DE0580911005D7
:1029300090911105A0911205B0911305892B8A2B56
:102940008B2B71F464E670E080E090E00E942D082B
:1029500080E090E0892B09F441CA0E9400003BCA44
:102960002FB7F8948091D3089091D408A091D508FE
:10297000B091D6082FBF409110055091110560917C
:10298000120570911305841B950BA60BB70B8639A6
:102990009105A105B105B0F20E949404D3CF8281C4
:1029A00093810A97099708F46EC124CE8091DE05C1
:1029B000843408F0E9C18091DE05863460F18281BB
:1029C00093810C970B9708F42EC225C0D90112965B
:1029D0006D917C9113976E5171096731710508F003
:1029E00058C2D701C601880F991FAA1FBB1F6C01CF
:1029F0007D016894C0F84E5F5F4F2C5F3F4F4534B8
:102A0000510509F42BC2D9016D917C916C5071096B
:102A10006B307105D8F28091DE05883578F18281BE
:102A20009381855891098B35910508F442C226C0DF
:102A3000BC016F5F7F4FD8014D915C9147505109A8
:102A40004730510508F044C2220F331F216002961F
:102A50000C5F1F4F4091DE0550E044505109841730
:102A600095070CF03EC2A80142505109DA014D9180
:102A70005C914950510948305105D0F28091DE05F2
:102A80008032E1F48281938106970697B8F48481BD
:102A900095810997099790F49F012A5F3F4FBF01E5
:102AA000625C7F4FC12CD12C7601D9014D915C9194
:102AB000465051094630510508F42FC22091450572
:102AC0003091460538872F83263031050CF429CF05
:102AD0008F010A5F1F4F95ECC92E9DE9D92E9CE10D
:102AE000E92E91E8F92E83E090E09E838D83D80152
:102AF0006D917C91F8013497A080B18080E090E0E6
:102B00000E94CE1C69877A878B879C87B50180E0FD
:102B100090E00E94CE1C4B015C012DEC3CEC4CE49F
:102B20005FE30E942F1D9B01AC0169857A858B852F
:102B30009C850E94C91C87FD19C02DEC3CEC4CE41F
:102B40005FE369857A858B859C850E942F1D9B019B
:102B5000AC01C501B4010E94C91CE82F880FFF0B0E
:102B6000EE27FF0FEE1FFF27319602C0E0E0F0E0F6
:102B7000A701960163E971E080E091E00E94531F94
:102B80006F01FF0FEE08FF08C626D726E826F926B4
:102B9000ED81FE813196FE83ED830E5F1F4F2F8105
:102BA0003885E217F30709F0A2CFC0923D05D09215
:102BB0003E05E0923F05F09240053092420520929A
:102BC00041058FEF9FEF44CD84819581CA97899706
:102BD00008F00BCD9F012A5F3F4FC12CD12C76010D
:102BE00043E050E0D9016D917C916A5071096930E0
:102BF000710508F0FACCD90112966D917C9113976A
:102C0000665171096131710570F5D701C601880FF0
:102C1000991FAA1FBB1F6C017D016894C0F84E5F0D
:102C20005F4F2C5F3F4F4B335105E1F69F012A5810
:102C30003F4FD9012D913C912A503109293031055E
:102C400008F0D3CC2CE130E03093420520934105CD
:102C5000C0923D05D0923E05E0923F05F0924005BE
:102C60008AE090E0F5CCD90112966D917C91139792
:102C7000665071096730710508F0B7CCCC0CDD1CCB
:102C8000EE1CFF1CCCCF2091DE05CF01820F911DE1
:102C9000820F911DDC0112978D919C910A970997E3
:102CA00008F0A8CC109242051092410540923D05D3
:102CB00050923E0560923F057092400562C080913F
:102CC000DE05813208F49ECC84819581CA9789976C
:102CD00008F098CC9F012A5F3F4FC12CD12C760180
:102CE00043E050E0D9016D917C916A5071096930DF
:102CF000710508F087CCD90112966D917C911397DC
:102D0000665171096131710560F5D701C601880FFF
:102D1000991FAA1FBB1F6C017D016894C0F84E5F0C
:102D20005F4F2C5F3F4F43325105E1F69F012A5B15
:102D30003F4FD9012D913C912A503109293031055D
:102D400008F060CC20E130E030934205209341054B
:102D5000C0923D05D0923E05E0923F05F0924005BD
:102D600010C0D90112966D917C911397665071092C
:102D70006730710508F046CCCC0CDD1CEE1CFF1C46
:102D8000CECF86E090E064CC84819581895491090E
:102D9000C39708F010CE9F012A5F3F4FBF016A57CB
:102DA0007F4FC12CD12C7601D9014D915C914950B6
:102DB00051094930510508F0FECDD90112964D91C7
:102DC0005C9113974651510941315105E0F4D70107
:102DD000C601880F991FAA1FBB1F6C017D01689453
:102DE000C0F82C5F3F4F26173707F1F630924205A7
:102DF00020924105C0923D05D0923E05E0923F05EC
:102E0000F092400523CCD90112964D915C91139715
:102E1000465051094730510508F0CDCDCC0CDD1C92
:102E2000EE1CFF1CDECF848195810997099708F07D
:102E3000F2CD868197818C974F9708F0ECCD8085F5
:102E4000918589974D9708F0E6CD9F01265F3F4F0A
:102E5000C12CD12C760145E050E0D5CD9F012657FD
:102E60003F4FD9012D913C912C5031092B30310528
:102E700008F0D1CD3092420520924105C0923D0527
:102E8000D0923E05E0923F05F092400588E090E048
:102E9000DFCBD90112966D917C911397695071091E
:102EA0006930710508F0B7CDCC0CDD1CEE1CFF1CA1
:102EB000A2CD84819581825491098E9708F0DECD50
:102EC0008F01045C1F4F8DE190E020E030E0C2CD27
:102ED000D8014D915C914851510942315105D0F0D2
:102EE000CB01019795958795909342058093410575
:102EF0008A970CF4C3CDC901330FAA0BBB0B809387
:102F00003D0590933E05A0933F05B093400589E0B1
:102F100090E09ECB220F331F9ACDD90112964D918E
:102F20005C911397495151094331510508F5D70177
:102F3000C601880F991FAA1FBB1F6C017D016894F1
:102F4000C0F82C5F3F4F2617370709F0AECD2EE0B3
:102F500030E03093420520934105C0923D05D09268
:102F60003E05E0923F05F09240058FE090E070CB87
:102F7000D90112964D915C911397495051094930EE
:102F8000510508F09BCDCC0CDD1CEE1CFF1CD9CFED
:102F9000BC01625F7F4FFC01838148E050E08064A8
:102FA0000C94690C0A970C94C817CF93DF93C2EC6A
:102FB000D8E02D978F8198850E94572086E0CD3AE2
:102FC000D807B9F7DF91CF910895CF92DF92EF92B2
:102FD000FF92CF9310924C0510924B0588EE93E030
:102FE000A0E0B0E080934D0590934E05A0934F056F
:102FF000B093500589E291E090934A05809349058A
:103000008FEF9FEF90935605809355058BE391E0EA
:103010009093B3058093B2058091C808811113C0C5
:103020001092C3081092C20884E392E09093C508FE
:103030008093C40889E190E09093C7088093C60804
:1030400081E08093C8088091AA05811107C089E9B1
:1030500095E00E94360481E08093AA05E091A405E2
:10306000F091A505309739F482EC98E09093A5058E
:103070008093A4050AC080819181009711F0FC0122
:10308000FACF82EC98E0918380832091C60830913A
:10309000C7088091A6059091A705820F931F909372
:1030A000A7058093A60581E08093C0058093C105A4
:1030B00022ED35E03093C3052093C2051092C5057B
:1030C0001092C4051092C9051092C80521E431E0A0
:1030D0003093BD052093BC052FE431E03093C70544
:1030E0002093C6058093D3058093D4051092D5050F
:1030F0001092D7051092D6051092D9051092D805D6
:1031000081EC8093D2050E942204FC014181209130
:10311000C00530E0240F311D2830310524F46CEB5C
:1031200075E00E94E60380E294E0AFE0B0E88093AF
:10313000AD069093AE06A093AF06B093B006109282
:10314000B10680E590E09093B3068093B20666E8FE
:1031500073E084EB96E00E949A0381E294E0AFE092
:10316000B0E88093BA069093BB06A093BC06B093D8
:10317000BD061092BE068FE490E09093C006809347
:10318000BF066BE873E081EC96E00E949A038EE143
:1031900094E0AFE0B0E88093C7069093C806A09390
:1031A000C906B093CA061092CB0682E590E09093D0
:1031B000CD068093CC066DEB74E08EEC96E00E9419
:1031C0009A038FE194E0AFE0B0E88093D406909347
:1031D000D506A093D606B093D7061092D80681E5FF
:1031E00090E09093DA068093D90660EF74E08BED5F
:1031F00096E00E949A0382E294E0AFE0B0E8809308
:10320000E1069093E206A093E306B093E4061092E1
:10321000E50688E290E09093E7068093E60661E990
:1032200073E088EE96E00E949A038BE094E0AFE0B2
:10323000B0E88093EE069093EF06A093F006B0936B
:10324000F1061092F2068BE290E09093F4068093E0
:10325000F30668E973E085EF96E00E949A038AE03E
:1032600094E0AFE0B0E88093FB069093FC06A09357
:10327000FD06B093FE061092FF068AE290E090935E
:103280000107809300076CE973E082E097E00E94F9
:103290009A0383E294E0AFE0B0E88093080790934C
:1032A0000907A0930A07B0930B0710920C0789E255
:1032B00090E090930E0780930D0766EA73E08FE02D
:1032C00097E00E949A0386E294E0AFE0B0E8809332
:1032D000150790931607A0931707B0931807C1E03E
:1032E000C09319078DE890E090931B0780931A070D
:1032F0006AEA73E08CE197E00E949A038FE094E021
:10330000AFE0B0E88093220790932307A0932407AF
:10331000B0932507C09326078CE090E09093280790
:103320008093270768EB73E089E297E00E949A0395
:1033300082E394E0AFE0B0E880932F0790933007EA
:10334000A0933107B0933207C093330780E490E035
:10335000909335078093340765EC73E086E397E03C
:103360000E949A0389E194E0AFE0B0E880933C07C3
:1033700090933D07A0933E07B0933F07C09340074B
:1033800087EB90E090934207809341076AEC73E0EB
:1033900083E497E00E949A0386E194E0AFE0B0E80E
:1033A0008093490790934A07A0934B07B0934C072B
:1033B000C0934D078DEC90E090934F0780934E079C
:1033C00065ED73E080E597E00E949A0388E194E060
:1033D000AFE0B0E88093560790935707A093580743
:1033E000B0935907C0935A0780EB90E090935C0725
:1033F00080935B0766EE73E08DE597E00E949A0389
:1034000087E1C82E84E0D82E8FE0E82E80E8F82EE1
:10341000C0926307D0926407E0926507F092660756
:10342000C093670782EB90E09093690780936807E9
:1034300062EF73E08AE697E00E949A0385E194E0E8
:10344000AFE0B0E88093700790937107A093720784
:10345000B0937307C093740784EB90E09093760762
:10346000809375076FEF73E087E797E00E949A03F8
:1034700084E194E0AFE0B0E880937D0790937E070D
:10348000A0937F07B0938007C093810783EB90E000
:10349000909383078093820769E074E084E897E063
:1034A0000E949A038BE194E0AFE0B0E880938A0732
:1034B00090938B07A0938C07B0938D07C0938E07D2
:1034C00086EB90E09093900780938F0763E174E020
:1034D00081E997E00E949A038AE194E0AFE0B0E8C6
:1034E0008093970790939807A0939907B0939A07B2
:1034F000C0939B0785EB90E090939D0780939C077A
:1035000062E274E08EE997E00E949A038AE594E013
:10351000AFE0B0E88093A4079093A507A093A60717
:10352000B093A7071092A80787E190E09093AA07AD
:103530008093A9076DE274E08BEA97E00E949A03FA
:103540008EE594E0AFE0B0E88093B1079093B207C6
:10355000A093B307B093B4071092B50782E190E04F
:103560009093B7078093B6076EE374E088EB97E01B
:103570000E949A038BE594E0AFE0B0E88093BE0729
:103580009093BF07A093C007B093C1071092C207E2
:103590008AE190E09093C4078093C3076BE474E0E2
:1035A00085EC97E00E949A038CE594E0AFE0B0E8E8
:1035B0008093CB079093CC07A093CD07B093CE0711
:1035C0001092CF0786E190E09093D1078093D007C7
:1035D00067E574E082ED97E00E949A038DE594E040
:1035E000AFE0B0E88093D8079093D907A093DA07AB
:1035F000B093DB071092DC078CE490E09093DE0739
:103600008093DD0765E674E08FED97E00E949A03F2
:1036100081E094E0AFE0B0E88093E5079093E6079F
:10362000A093E707B093E8071092E9078EE190E0D6
:103630009093EB078093EA0769E774E08CEE97E0DC
:103640000E949A0382E094E0AFE0B0E88093F20732
:103650009093F307A093F407B093F5071092F60741
:103660008FE190E09093F8078093F7076FE774E09D
:1036700089EF97E00E949A0383E094E0AFE0B0E81E
:103680008093FF0790930008A0930108B09302086D
:103690001092030880E290E090930508809304085C
:1036A00065E874E086E098E00E949A0384E094E084
:1036B000AFE0B0E880930C0890930D08A0930E083B
:1036C000B0930F081092100881E290E090931208D6
:1036D000809311086BE874E083E198E00E949A03FC
:1036E00085E094E0AFE0B0E88093190890931A0861
:1036F000A0931B08B0931C0810921D0882E290E072
:1037000090931F0880931E0861E974E080E298E0BE
:103710000E949A0386E094E0AFE0B0E88093260828
:1037200090932708A0932808B093290810922A089C
:1037300083E290E090932C0880932B0867E974E073
:103740008DE298E00E949A0387E094E0AFE0B0E851
:103750008093330890933408A0933508B0933608CB
:103760001092370884E290E09093390880933808EB
:103770006DE974E08AE398E00E949A0388E094E09F
:10378000AFE0B0E88093400890934108A0934208CE
:10379000B09343081092440885E290E09093460865
:1037A0008093450863EA74E087E498E00E949A03F6
:1037B00089E094E0AFE0B0E880934D0890934E0824
:1037C000A0934F08B09350081092510886E290E001
:1037D000909353088093520869EA74E084E598E076
:1037E0000E949A0380E094E0AFE0B0E880935A082A
:1037F00090935B08A0935C08B0935D0810925E08FC
:1038000087E290E09093600880935F086FEA74E02D
:1038100081E698E00E949A0382E194E0AFE0B0E88C
:103820008093670890936808A0936908B0936A082A
:10383000C0936B088CE990E090936D0880936C08BE
:1038400065EB74E08EE698E00E949A0383E194E0D1
:10385000AFE0B0E88093740890937508A093760861
:10386000B0937708C09378088DE990E090937A0838
:103870008093790860EC74E08BE798E00E949A03EB
:103880008DE094E0AFE0B0E88093810890938208E7
:10389000A0938308B0938408109285088DE190E08E
:1038A00090938708809386086BEC74E088E898E032
:1038B0000E949A038EE094E0AFE0B0E880938E0817
:1038C00090938F08A0939008B0939108C0939208AA
:1038D00082EE90E090939408809393086AED74E0F0
:1038E00085E998E00E949A0380E194E0AFE0B0E8B7
:1038F00080939B0890939C08A0939D08B0939E088A
:10390000C0939F0889EE90E09093A1088093A0084F
:103910006FED74E082EA98E00E949A0381E194E0FE
:10392000AFE0B0E88093A8089093A908A093AA08F4
:10393000B093AB08C093AC088AEE90E09093AE08C9
:103940008093AD0869EE74E08FEA98E00E949A03D4
:10395000C092B508D092B608E092B708F092B808C5
:103960001092B90886E490E09093BB088093BA085F
:1039700065EF74E08CEB98E00E949A038AE08093F4
:10398000DB051092DD05CF91FF90EF90DF90CF9097
:1039900008950E940B1D08F481E00895E89409C081
:1039A00097FB3EF490958095709561957F4F8F4F72
:1039B0009F4F9923A9F0F92F96E9BB279395F69588
:1039C000879577956795B795F111F8CFFAF4BB0F06
:1039D00011F460FF1BC06F5F7F4F8F4F9F4F16C06A
:1039E000882311F096E911C0772321F09EE8872FF4
:1039F000762F05C0662371F096E8862F70E060E0B0
:103A00002AF09A95660F771F881FDAF7880F969528
:103A1000879597F90895990F0008550FAA0BE0E8CC
:103A2000FEEF16161706E807F907C0F01216130680
:103A3000E407F50798F0621B730B840B950B39F4C0
:103A40000A2661F0232B242B252B21F408950A2626
:103A500009F4A140A6958FEF811D811D08950E9454
:103A6000421D0C94B31D0E94A51D38F00E94AC1D90
:103A700020F0952311F00C949C1D0C94A21D112490
:103A80000C94E71D0E94C41D70F3959FC1F3950F20
:103A900050E0551F629FF001729FBB27F00DB11DD2
:103AA000639FAA27F00DB11DAA1F649F6627B00D62
:103AB000A11D661F829F2227B00DA11D621F739F4B
:103AC000B00DA11D621F839FA00D611D221F749F59
:103AD0003327A00D611D231F849F600D211D822FA0
:103AE000762F6A2F11249F5750409AF0F1F08823C7
:103AF0004AF0EE0FFF1FBB1F661F771F881F9150F4
:103B00005040A9F79E3F510580F00C949C1D0C94E9
:103B1000E71D5F3FE4F3983ED4F38695779567956C
:103B2000B795F795E7959F5FC1F7FE2B880F911D1D
:103B30009695879597F9089597F99F6780E870E0C3
:103B400060E008959FEF80EC089500240A94161613
:103B5000170618060906089500240A94121613067B
:103B6000140605060895092E0394000C11F4882309
:103B700052F0BB0F40F4BF2B11F460FF04C06F5F25
:103B80007F4F8F4F9F4F089557FD9058440F551FFB
:103B900059F05F3F71F04795880F97FB991F61F0CF
:103BA0009F3F79F087950895121613061406551F46
:103BB000F2CF4695F1DF08C0161617061806991FB2
:103BC000F1CF86957105610508940895E894BB27A7
:103BD00066277727CB0197F908950E942F1EA59F8E
:103BE000900DB49F900DA49F800D911D11240895F8
:103BF0002F923F924F925F926F927F928F929F92FD
:103C0000AF92BF92CF92DF92EF92FF920F931F93EA
:103C1000CF93DF93CDB7DEB7CA1BDB0B0FB6F8949B
:103C2000DEBF0FBECDBF09942A88398848885F84DB
:103C30006E847D848C849B84AA84B984C884DF804C
:103C4000EE80FD800C811B81AA81B981CE0FD11D30
:103C50000FB6F894DEBF0FBECDBFED010895A29F51
:103C6000B001B39FC001A39F700D811D1124911D50
:103C7000B29F700D811D1124911D08955058BB27CE
:103C8000AA270E94561E0C94B31D0E94A51D38F051
:103C90000E94AC1D20F039F49F3F19F426F40C94D7
:103CA000A21D0EF4E095E7FB0C949C1DE92F0E94E9
:103CB000C41D58F3BA17620773078407950720F0ED
:103CC00079F4A6F50C94E61D0EF4E0950B2EBA2FB0
:103CD000A02D0B01B90190010C01CA01A001112412
:103CE000FF27591B99F0593F50F4503E68F11A16BE
:103CF000F040A22F232F342F4427585FF3CF46954F
:103D000037952795A795F0405395C9F77EF41F1670
:103D1000BA0B620B730B840BBAF09150A1F0FF0F3A
:103D2000BB1F661F771F881FC2F70EC0BA0F621F26
:103D3000731F841F48F4879577956795B795F79516
:103D40009E3F08F0B0CF9395880F08F09927EE0FAB
:103D50009795879508950E94BF1E0C94B31D0E94ED
:103D6000AC1D58F00E94A51D40F029F45F3F29F0DA
:103D70000C949C1D51110C94E71D0C94A21D0E94E3
:103D8000C41D68F39923B1F3552391F3951B550B8B
:103D9000BB27AA2762177307840738F09F5F5F4F1E
:103DA000220F331F441FAA1FA9F335D00E2E3AF05D
:103DB000E0E832D091505040E695001CCAF72BD075
:103DC000FE2F29D0660F771F881FBB1F26173707C6
:103DD0004807AB07B0E809F0BB0B802DBF01FF27F8
:103DE00093585F4F3AF09E3F510578F00C949C1D1C
:103DF0000C94E71D5F3FE4F3983ED4F386957795E6
:103E00006795B795F7959F5FC9F7880F911D9695B0
:103E1000879597F90895E1E0660F771F881FBB1F0C
:103E2000621773078407BA0720F0621B730B840BB9
:103E3000BA0BEE1F88F7E09508950E94241F68943E
:103E4000B1110C94E71D08950E94CC1D88F09F5776
:103E500098F0B92F9927B751B0F0E1F0660F771FAE
:103E6000881F991F1AF0BA95C9F714C0B13091F0A4
:103E70000E94E61DB1E008950C94E61D672F782F8F
:103E80008827B85F39F0B93FCCF386957795679569
:103E9000B395D9F73EF490958095709561957F4FD5
:103EA0008F4F9F4F0895DB018F939F930E94ED1DCD
:103EB000BF91AF91A29F800D911DA39F900DB29FC6
:103EC000900D11240895A1E21A2EAA1BBB1BFD011F
:103ED0000DC0AA1FBB1FEE1FFF1FA217B307E407E9
:103EE000F50720F0A21BB30BE40BF50B661F771F41
:103EF000881F991F1A9469F7609570958095909521
:103F00009B01AC01BD01CF010895EE0FFF1F05908D
:103F1000F491E02D09940F93083090F0982F872F9B
:103F2000762F652F542F432F322F22270850F4CF9E
:103F3000220F331F441F551F661F771F881F991FAD
:103F40000A95B2F70F91089597FB10F816940008A0
:103F50000F93083098F00850232F342F452F562FF9
:103F6000672F782F892F902DF4CF059497958795FB
:103F70007795679557954795379527950A95AAF7A9
:103F80000F910895CF93DF938230910510F482E072
:103F900090E0E091E308F091E40820E030E0C0E038
:103FA000D0E0309711F14081518148175907C0F096
:103FB0004817590761F482819381209719F09B83F8
:103FC0008A832BC09093E4088093E30826C02115D0
:103FD000310519F04217530718F49A01BE01DF01A9
:103FE000EF010280F381E02DDCCF2115310509F1CD
:103FF000281B390B2430310590F412968D919C9139
:1040000013976115710521F0FB019383828304C02E
:104010009093E4088093E308FD01329644C0FD01CB
:10402000E20FF31F81939193225031092D933C931A
:104030003AC02091E1083091E208232B41F420910D
:104040001501309116013093E2082093E108209188
:104050001301309114012115310541F42DB73EB7FC
:104060004091170150911801241B350BE091E10894
:10407000F091E208E217F307A0F42E1B3F0B28177C
:10408000390778F0AC014E5F5F4F2417350748F0D1
:104090004E0F5F1F5093E2084093E1088193919384
:1040A00002C0E0E0F0E0CF01DF91CF9108950F93DF
:1040B0001F93CF93DF93009709F48CC0FC013297D4
:1040C000138212820091E3081091E4080115110592
:1040D00081F420813181820F931F2091E10830917A
:1040E000E2082817390779F5F093E208E093E10830
:1040F00071C0D80140E050E0AE17BF0750F41296EF
:104100002D913C911397AD012115310509F1D9018C
:10411000F3CF9D01DA013383228360817181860FA1
:10412000971F8217930769F4EC0128813981260FC4
:10413000371F2E5F3F4F318320838A819B8193837A
:104140008283452B29F4F093E408E093E30842C00E
:104150001396FC93EE931297ED01499159919E01AC
:10416000240F351FE217F30771F480819181840FCA
:10417000951F029611969C938E938281938113963C
:104180009C938E931297E0E0F0E0D80112968D9107
:104190009C911397009719F0F8018C01F6CF8D913F
:1041A0009C9198012E5F3F4F820F931F2091E10851
:1041B0003091E2082817390769F4309729F41092F2
:1041C000E4081092E30802C0138212821093E208FE
:1041D0000093E108DF91CF911F910F910895A0E026
:1041E000B0E0E5EFF0E20C94FC1DEC01009721F447
:1041F000CB010E94C21FB8C0FC01E60FF71F9C0153
:1042000022503109E217F30708F4ACC0D9010D912F
:104210001C91119706171707B0F00530110508F427
:104220009FC0C80104978617970708F499C00250E9
:104230001109061B170B019311936D937C93CF010A
:104240000E9457208DC05B01A01AB10A4C01800E5C
:10425000911EA091E308B091E40840E050E0E12C09
:10426000F12C109709F44AC0A815B905D1F56D9045
:104270007C901197630182E0C80ED11CCA14DB0444
:1042800080F1A3014A195B096A0182E0C80ED11CC2
:104290001296BC9012971396AC91B5E0CB16D10450
:1042A00040F0B282A38351834083D9016D937C9304
:1042B0000AC00E5F1F4FC301800F911FF901918348
:1042C0008083EB2DFA2FE114F10431F0D70113961E
:1042D000FC93EE93129744C0F093E408E093E30854
:1042E0003FC08D919C9111974817590708F4AC0174
:1042F0007D0112960D90BC91A02DB3CF8091E10865
:104300009091E20888159905E1F446175707C8F41B
:104310008091130190911401009741F48DB79EB7DD
:104320004091170150911801841B950BE817F9076C
:10433000C8F4F093E208E093E108F9017183608327
:104340000FC0CB010E94C21F7C01009759F0A80149
:10435000BE010E94BE21CE010E945720C70104C0A9
:10436000CE0102C080E090E0CDB7DEB7EEE00C9465
:10437000181E81E090E0F8940C94CE21FB01DC0142
:1043800002C001900D9241505040D8F70895FB01B2
:10439000DC0101900D920020E1F7089511E0C2E6E2
:1043A000D1E004C0FE010E94851F2196C336D107CB
:0643B000C9F7F894FFCFED
:1043B60000C18081000000FFFFFFFF00E100000058
:1043C6000000000000E508800000000000B801922F
:1043D600025202DF0100000000030D3E0DA70D1979
:1043E6000D240D540D720D00000000620400000043
:1043F600004003F802DA024502C817F6FF0000265D
:10440600058D014D024C02FB01D2170A0200000085
:104416000050025002500245022D2D2D2D2D2D2D1E
:104426002D2D2D2D2D2D2D2D2D2D2D2D2D2D2D2DB6
:104436002D2D2D2D2D2D2D2D2D2D2D2D2D2D2D2DA6
:104446002D2D2D2D2D2D2D0A004952205043205360
:104456007769746368202D2056657273696F6E3AAA
:104466002000456E61626C696E6720495220646562
:10447600636F6465722E2E2E0A00646F6E652E0AB7
:10448600002D2D2D2D2D2D2D2D2D2D2D2D2D2D2D83
:104496002D2D2D2D2D2D2D2D2D2D2D2D2D2D2D2D46
:1044A6002D2D2D2D2D2D2D2D2D2D2D2D2D2D2D0A59
:1044B6000A00202020504320506F776572205374E5
:1044C600617475733A0A002020506F77657220690F
:1044D6007320004F46460A0A0020204C6173742060
:1044E600495220436F646520526563656976656449
:1044F6003A2000554E4B4E4F574E004E4543005303
:104506004F4E5900524335005243360044495348F2
:10451600005348415250004A56430053414E594FAA
:10452600004D4954535542495348490053414D5350
:10453600554E47004C47005748594E544552004186
:104546004957415F52435F543530310050414E4127
:10455600534F4E49430044454E4F4E00202D2030C8
:1045660078005043206973204F4E2E20476F7420E9
:10457600506F776572204F666620636F64653A20D8
:10458600002E205475726E696E67205043206F6648
:10459600662E0A002E2069676E6F7265642C206491
:1045A600657669636520616C7265616479206F6602
:1045B600662E0A005043206973204F46462E204738
:1045C6006F7420506F776572204F6E20636F64653D
:1045D6003A20002E205475726E696E672050432073
:1045E6006F6E2E0A002E2069676E6F7265642C202E
:1045F60064657669636520616C7265616479206FB4
:104606006E2E0A0041637469766174696E67205084
:104616004320706F776572207377697463682066CC
:104626006F7220323530206D732E2E2E0A00446FA5
:104636006E652E0A0A004C454654005249474854B6
:104646000052455455524E00544142004241434B9C
:104656005350414345004553430050524F47524142
:104666004D204755494445004B45595F49202D206B
:10467600494E464F004D454E55004D454449415F14
:1046860053544F50004D454449415F504C41595F8A
:104696005041555345004D454449415F504155539E
:1046A60045004D454449415F5245434F5244004DF4
:1046B600454449415F524557004D454449415F468F
:1046C6005744004D454449415F50524556494F5560
:1046D60053004D454449415F4E455854004B45599A
:1046E6005F54202D205355425449544C45004B45A8
:1046F600595F4F202D20424C5545004B45595F5779
:10470600202D20524544004B45595F53202D20470C
:104716005245454E004B45595F44454C455445204E
:104726002D2059454C4C4F57004B45595F31004B96
:1047360045595F32004B45595F33004B45595F344D
:10474600004B45595F35004B45595F36004B45597F
:104756005F37004B45595F38004B45595F39004B71
:1047660045595F30004348414E4E454C2055500058
:104776004348414E4E454C20444E004B45595F5AE6
:10478600202D20415350454354004D555445005665
:104796004F4C554D455F555000564F4C554D455F56
:1047A600444F574E004B45595F5052494E54534360
:0C47B6005245454E202D20524543000086
:00000001FF
