:100000000C9463010C948B010C948B010C948B0168
:100010000C948B010C948B010C948B010C948B0130
:100020000C948B010C948B010C94E60B0C94E40C57
:100030000C948B010C948B010C948B010C948B0110
:100040000C948B010C948B010C948B010C948B0100
:100050000C948B010C948B010C948B010C949C0BD5
:100060000C948B010C948B010C948B010C948B01E0
:100070000C948B010C948B010C948B010C948B01D0
:100080000C948B010C948B010C948B010C948B01C0
:100090000C948B010C948B010C948B010C948B01B0
:1000A0000C948B010C943C090C948B013E06410688
:1000B00038063B065F064A06530659065C06560696
:1000C0004D0650064406470662065B075E074D076D
:1000D000510757077F077F077F07620766076A0791
:1000E000700774077F077A07000000000000000017
:1000F0002A2B280000000000000000000000000083
:1001000000000000000000002C9EB4A0A1A2A434B6
:10011000A6A7A5AE362D3738271E1F20212223245F
:100120002526B333B62EB7B89F8485868788898AFB
:100130008B8C8D8E8F909192939495969798999A97
:100140009B9C9D2F3130A3AD350405060708090A95
:100150000B0C0D0E0F101112131415161718191A77
:100160001B1C1DAFB1B0B50005010906A1010507B3
:1001700019E029E715002501750195088102050C94
:1001800095017508150026FF00190029FF8100055B
:10019000081901290895087501910205079506754A
:1001A00008150026E700190029E78100C0000000BB
:1001B00000240027002A002D003000000000002548
:1001C0000028002B002E0031000000000023002634
:1001D0000029002C002F0004040404040304050279
:1001E00002020204030202020206060606060604D2
:1001F000040202020404040802011040804010209E
:1002000040804080080204018040201002011080DC
:1002100010204040200000000200090F00000304ED
:1002200001000C00000000000000000000000000C1
:1002300000000000050C0901A1018504150026FF3E
:100240000319002AFF03950475108100C0080B00F4
:10025000020202010009040000010202000005245C
:1002600000100105240101010424020605240600F2
:10027000010705810310004009040100020A000083
:100280000007050202400000070583024000000449
:1002900003090412010002EF0201404123368000ED
:1002A000010102030141726475696E6F204C4C4379
:1002B0000041726475696E6F204C656F6E61726487
:1002C0006F00001CF01B11241FBECFEFDAE0DEBF71
:1002D000CDBF28E0A6E6B5E001C01D92AD3EB20755
:1002E000E1F715E0A0E0B1E0EAEFFFE402C005901D
:1002F0000D92A636B107D9F711E0C2E6D1E004C0ED
:100300002197FE010E940623C136D107C9F70E943A
:10031000BE0F0C94F0270C940000CF92DF92EF9266
:10032000FF920F931F93CF93DF936C017A018B01A0
:10033000C0E0D0E0CE15DF0589F0D8016D918D01C8
:10034000D601ED91FC910190F081E02DC601099557
:10035000892B11F47E0102C02196ECCFC701DF91F9
:10036000CF911F910F91FF90EF90DF90CF90089564
:10037000DC01FB0112968C91129790E0248135816B
:1003800082179307D1F491818081813A31F481E021
:10039000913091F0933089F411C0813271F49B3027
:1003A00021F482811F968C9305C09A3031F48281AA
:1003B00050968C9381E00895089580E00895DC01C3
:1003C000FB0188E4808389E4818384E482831D9631
:1003D0009C911D979F709F5B93831D968D919C911F
:1003E0001E9724E0969587952A95E1F78F708F5B8D
:1003F000848385E00895FC0134969C01245F3F4F7F
:1004000080E090E04081411101961192E217F307DC
:10041000C9F70895FC0120E2260F2830F0F0DC0136
:10042000169620E030E08D91442349F0861304C0F5
:10043000E20FF31F668326C0811107C0F9CF861330
:1004400004C0E20FF31F16821DC02F5F3F4F2630FE
:10045000310549F780E090E008953481442349F064
:1004600081E090E001C0880F2A95EAF7832B84830E
:1004700009C041E050E001C0440F2A95EAF74095D9
:100480004323448381E090E00895FC0182818F5BE7
:10049000FB01808381E00895089580E090E0089555
:1004A0000E943A25EF92FF920F931F93CF93DF9311
:1004B000FB012081213851F52381223239F5DC01FD
:1004C00012962C9130E04481558142175307F1F484
:1004D000EC010B851C85E12CF12C0115110591F027
:1004E000F801448155816281738180E80E948B0C00
:1004F0008F3FFFEF9F0769F0E80EF91ED8010D91BD
:100500001C91EBCF81E08F87C70105C080E090E0B0
:1005100002C08FEF9FEFDF91CF911F910F91FF905E
:10052000EF900895CF93DF93CDB7DEB769970FB6FD
:10053000F894DEBF0FBECDBFFC01DB018C918F5F55
:100540008C93BE016F5F7F4F89E1DB011D928A951D
:10055000E9F729E0298384E08A8391E09D8383E0A1
:100560008E832A8721E22B879C879D879F8722E2A3
:10057000288B27E02B8B25E02C8B8E8B20E430E022
:10058000388F2F8B998F82818B8395858685998B68
:100590008A8B838180688D8B49E150E080E00E94E6
:1005A0008B0C69960FB6F894DEBF0FBECDBFDF91FE
:1005B000CF910895FB0120812138B9F423812232A3
:1005C000A1F4DC0112962C91129730E04481558100
:1005D0004217530751F421E057962C9345E450E01D
:1005E00068E671E080E80C948B0C80E090E0089560
:1005F000CF93DF93CDB7DEB769970FB6F894DEBF20
:100600000FBECDBFFC01DB019C919F5F9C93BE019F
:100610006F5F7F4F89E1DB011D928A95E9F729E041
:10062000298384E08A8391E09D8383E08E839F8386
:1006300098872A8721E22B879C879D879F8722E2C4
:10064000288B25E4298B27E02B8B25E02C8B8E8BA8
:1006500020E430E0388F2F8B998F82818B838381C8
:1006600080688D8B49E150E080E00E948B0C699698
:100670000FB6F894DEBF0FBECDBFDF91CF910895C6
:10068000CF93DF93EC01FB018A8190E024813581D7
:100690008217930709F04AC081819081913A69F4E9
:1006A000813009F441C0833011F48F8903C0823056
:1006B000E9F5888D8093F10037C09132B9F58B3020
:1006C00019F482818F8B30C08A3019F48281888F2F
:1006D0002BC0893059F5668177818381833079F425
:1006E0008C8D9D8D6817790709F58A8D9B8D0E94E9
:1006F000580C8C8D9D8D90689D8F8C8F15C082308D
:1007000041F46130710591F461E070E0CE014996E9
:1007100009C0813059F46830710541F468E070E037
:10072000CE010E960E94580C81E001C080E0DF915E
:10073000CF910895EF92FF920F931F93CF93DF9382
:10074000EC017B018A0188819981009729F02A8137
:100750003B8124173507F8F4B8016F5F7F4F0E9483
:100760007024009759F0998388831B830A832C8116
:100770003D81232B81F4FC0110820DC08881998179
:10078000009711F00E94D823198218821D821C82C2
:100790001B821A8207C01D830C83B701888199814F
:1007A0000E944825CE01DF91CF911F910F91FF90BC
:1007B000EF900895FC01118210821382128215823B
:1007C00014826115710551F0FB0101900020E9F7D9
:1007D0003197AF01461B570B0C949A030895CF93A2
:1007E000DF93FC01DB01C281D381209719F473836D
:1007F000628308C088859985009711F0EC01FACFD3
:10080000B987A887808112968C931297818113965D
:100810008C931397908115968C911597890F8083EF
:1008200080E014969C911497891788F41696CD91C0
:10083000DC911797C80FD11D9881C181D0E0C050BD
:10084000DF4F988391819F5F91838F5FEACF81E033
:10085000DF91CF9108958091850581110DC082E0CF
:100860008093810584E08093820510928405109224
:10087000830581E08093850581E895E00895CF9315
:10088000DF93EC0181E08C838D839E01265F3F4FD7
:100890003F832E83198618862DE131E03983288322
:1008A0001C861B861E861D868F87888B81EC8A8717
:1008B0000E942B04FC0141812C8130E0240F311D6A
:1008C000283031052CF4BE01DF91CF910C94EF0359
:1008D000DF91CF910895EF92FF920F931F93CF93E3
:1008E000DF931F92CDB7DEB78B017A0180910006AE
:1008F000811107C08FEE95E00E943F0481E0809354
:10090000000684E0898341E050E0BE016F5F7F4FC5
:100910008091F2050E940E0F97FD07C08091F205AD
:10092000A701B80180640E940E0F0F90DF91CF9154
:100930001F910F91FF90EF900895E0911C06F091A8
:100940001D060084F185E02D8CE196E00995892B48
:1009500051F0E0911C06F0911D060284F385E02D14
:100960008CE196E009950E9480071092660510922E
:100970006705109268051092690510926C05109237
:100980006D0510926E0510926F0508952F923F929B
:100990004F925F926F927F928F929F92AF92BF928F
:1009A000CF92DF92EF92FF920F931F93CF93DF933B
:1009B000CDB7DEB761970FB6F894DEBF0FBECDBFDF
:1009C0002EA03FA0F101812C912C8191882331F040
:1009D0008532D9F78FEF881A980AF7CF8E01085D14
:1009E0001F4FE12CF12CA12CB12CF101EA0DFB1DC4
:1009F0008081882309F413C1E1E0F0E0EC0FFD1FD2
:100A0000EE0DFF1D853209F0F3C01082CE01019674
:100A10000E9495071982EFEFAE1ABE0AF101EA0DA6
:100A2000FB1D80818636C1F184F4833609F4D6C07B
:100A3000843609F0EEC07801F2E0EF0EF11CF80107
:100A4000808191810E94F907D1C08C3669F083378B
:100A500009F0DFC07801F2E0EF0EF11CF8018081AF
:100A600091810E949507C2C0F801C080D180E280C8
:100A7000F3800C5F1F4FF7FE0BC08DE20E94AD07A5
:100A800066277727CB016C197D098E099F09A2C0C3
:100A90004AE0C701B6019FC0F801C080D180E28062
:100AA000F3800C5F1F4FA7019601C701B6010E949A
:100AB000CF22882319F080E094E027C02601370177
:100AC000E89477F82FEF3FEF4FE75FE7C301B201FC
:100AD0000E94CF2281110DC02FEF3FEF4FE75FE75C
:100AE000C301B2010E94402018161CF484E094E077
:100AF0000CC02FEF3FEF4FE75FE4C701B6010E9444
:100B0000CA2218162CF488E094E00E94950781C050
:100B10002FEF3FEF4FE75FECC701B6010E94402087
:100B200087FDF1CF20E030E0A901C701B6010E94A6
:100B3000402087FF07C08DE20E94AD07F7FAF094CE
:100B4000F7F8F0942AE037ED43EA5BE3C701B6011A
:100B50000E94B6212B013C010E949B226B017C016B
:100B60000E9445209B01AC01C301B2010E94B52146
:100B70002B013C014AE0C701B6010E94B8078EE292
:100B80000E94AD0720E030E040E251E4C301B20131
:100B90000E94A6206B017C010E949B222B01612CEC
:100BA000712C4AE0C301B2010E94B807C301B2012F
:100BB0000E9445209B01AC01C701B6010E94B521EE
:100BC00020E030E040E251E40E94A6200E949B22F7
:100BD00080E090E04AE00E94B8071BC07801F2E094
:100BE000EF0EF11CF80180810E94AD07870111C052
:100BF0008083FFEFEF1AFF0A8FE0E822FF24E11461
:100C0000F10449F4198ACE0101960E9495071982D0
:100C100002C0E12CF12CEFEFAE1ABE0AE6CEC40101
:100C2000019661960FB6F894DEBF0FBECDBFDF917F
:100C3000CF911F910F91FF90EF90DF90CF90BF90D9
:100C4000AF909F908F907F906F905F904F903F906C
:100C50002F900895DC01ED91FC913197EF30F10573
:100C600020F4EA5AFF4F0C9406238CE094E02CC049
:100C700084E194E029C088E194E026C08DE194E00D
:100C800023C081E294E020C085E294E01DC08AE2A6
:100C900094E01AC080E394E017C084E394E014C0A9
:100CA0008AE394E011C085E494E00EC08DE494E002
:100CB0000BC080E594E008C088E594E005C085E6B7
:100CC00094E002C08FE694E09F938F930E94C60445
:100CD0000F900F90089580916B05811104C0809151
:100CE0006A05882341F085E794E09F938F930E94E3
:100CF000C6040F900F9061E089E00E940C096AEF32
:100D000070E080E090E00E94320A60E089E00E949A
:100D10000C0980916B05811104C080916A058823BC
:100D200031F069E671E08FE994E00C94482508956C
:100D3000EF92FF920F931F93CF93DF93E62FF0E094
:100D4000E038F10540F021E030E0DC0113963C93FF
:100D50002E93129722C0D42F7C01E851FF4FC491EB
:100D6000DC01ED91FC916C2F6F770484F585E02D0B
:100D700009958C01C7FF13C0892B11F4D1110DC047
:100D8000D701ED91FC910484F585E02D4D2F61EEA6
:100D9000C7010995802B912B02C080E090E0DF9184
:100DA000CF911F910F91FF90EF900895FF920F93B5
:100DB0001F93CF93DF93EC01F62E41E00E9498063B
:100DC0008C01892BA9F0E881F9810284F385E02D5B
:100DD000CE01099540E06F2DCE010E949806892B27
:100DE00039F0E881F9810284F385E02DCE0109957F
:100DF000C801DF91CF911F910F91FF900895CF927D
:100E0000DF92EF92FF92CF93DF93EC01072E000C5D
:100E1000880B990B0E9447206B017C0120E030E099
:100E200040E45FE30E94A62020E030E048E452E482
:100E30000E9422220E949422C617D707D4F020E0F5
:100E400030E040EA5FE3C701B6010E94A62020E03F
:100E500030E048E452E40E94222220E030E040E802
:100E60005FE30E94B6210E94942221E06C177D0767
:100E70000CF420E0822F90E0DF91CF91FF90EF9073
:100E8000DF90CF90089590E0FC013197EF30F105AD
:100E9000B0F5EB59FF4F0C940623809180008F77BB
:100EA00003C0809180008F7D8093800008958091A1
:100EB0008000877FF9CF84B58F7702C084B58F7D9E
:100EC00084BD0895809190008F7707C08091900035
:100ED0008F7D03C080919000877F8093900008955C
:100EE0008091C0008F7703C08091C0008F7D809378
:100EF000C00008958091C200877F8093C20008954A
:100F000088E0EAE0F6E0DF011D928A95E9F7E091DA
:100F10000806F09109060190F081E02D48E050E0CC
:100F20006AE076E088E096E00994BC01009791F0D1
:100F3000FC0101900020E9F73197AF01481B590BE4
:100F4000E0919F05F091A0050280F381E02D8FE9EB
:100F500095E0099480E090E00895E0919F05F0917C
:100F6000A0050190F081E02D682F8FE995E00994AC
:100F70008F929F92AF92BF920F931F93CF93DF9365
:100F8000CDB7DEB7A1970FB6F894DEBF0FBECDBFC9
:100F900019A2423008F44AE08E010F5D1F4F842EE3
:100FA000912CA12CB12CA50194010E94E422E62FE2
:100FB000B901CA0101501109EA3014F4E05D01C021
:100FC000E95CD801EC93232B242B252B61F7C80176
:100FD0000E949507A1960FB6F894DEBF0FBECDBF55
:100FE000DF91CF911F910F91BF90AF909F908F9005
:100FF0000895CF92DF92EF92FF92CF93DF936C012F
:10100000990FEE08FF08F7FE17C08DE20E94AD07AA
:10101000EC0166277727CB016C197D098E099F09A2
:101020004AE00E94B8078C0F9D1FDF91CF91FF907F
:10103000EF90DF90CF9008954AE0C701B601DF91AD
:10104000CF91FF90EF90DF90CF900C94B8078091F4
:101050008F0590919005059769F4609191057091C5
:10106000920580E090E040E10E94B80784E695E0B8
:101070000E94950760919305709194058091950564
:101080009091960540E10C94B807FC0180918E0583
:10109000811103C08FEF9FEF08959FB7F89482E00E
:1010A0008093E9002091F20030E01216130614F448
:1010B00021E030E02115310559F0289884E680932D
:1010C0008D058091F10080838091F200882319F0D2
:1010D0009FBFC90108958BE68093E800F9CF8F92F6
:1010E0009F92AF92BF92CF92DF92EF92FF920F93B7
:1010F0001F93CF93DF93FC01C081D18120919B0589
:1011000030919C05C217D3070CF04BC09E01220FF3
:10111000331FE0919905F0919A05E20FF31F80804B
:101120009180C170DD27F1E0CF27209719F404E604
:1011300010E002C00CE91FEF7A015B016C01040FA3
:10114000151FB801C4010E94FF06892B99F40E0DEA
:101150001F1DB801C4010E94FF06892B71F4B8015C
:101160006E0D7F1DC4010E94FF06892BE9F023E06C
:1011700030E005C021E030E002C022E030E0F501BF
:10118000808191810196821793073CF0F5011182CD
:101190001082F60180819181019691838083CE0136
:1011A00005C081E090E002C08FEF9FEFDF91CF910B
:1011B0001F910F91FF90EF90DF90CF90BF90AF9075
:1011C0009F908F900895CF93DF93282F30E0F901FF
:1011D000EB5EFD4F8491F901EA50FE4FD491F90185
:1011E000E952FE4FC491CC2391F081110E94430734
:1011F000EC2FF0E0EE0FFF1FE753FE4FA591B491E7
:10120000EC91ED2381E090E021F480E002C080E0E9
:1012100090E0DF91CF9108951F93CF93DF93282F14
:1012200030E0F901EB5EFD4F8491F901EA50FE4F89
:10123000D491F901E952FE4FC491CC23C9F0162F85
:1012400081110E944307EC2FF0E0EE0FFF1FE554E1
:10125000FE4FA591B4918FB7F894111105C09C91E0
:10126000ED2FE095E92302C0EC91ED2BEC938FBFBD
:10127000DF91CF911F9108951F920F920FB60F9299
:1012800011242F933F934F935F936F937F938F938B
:101290009F93AF93BF93EF93FF93809131060E948A
:1012A000E30820913506309136062F5F3F4F30938B
:1012B00036062093350690913406953618F096E060
:1012C00090933006909130069430C9F128F4923012
:1012D00069F09330D1F05EC0953009F451C096307A
:1012E00009F058C091E09093010751C0811152C09C
:1012F00020913506309136062436310508F442C077
:1013000010920107109234061CC0813009F042C0CF
:10131000E091340691E09E0F90933406F0E0209126
:10132000350630913606EE0FFF1FE05DF94F30872E
:101330002783109236061092350694E029C0811159
:1013400017C0E091340691E09E0F90933406F0E0D0
:101350002091350630913606EE0FFF1FE05DF94F04
:1013600030872783109236061092350693E010C01E
:1013700020913506309136062536310558F007C0E4
:10138000811108C0109236061092350603C095E010
:1013900090933006909133069923B9F081110AC0D9
:1013A00080913206882321F08091320661E009C0E5
:1013B0002D9A0BC080913206882331F0809132063D
:1013C00060E00E940C0901C02D98FF91EF91BF9140
:1013D000AF919F918F917F916F915F914F913F91CD
:1013E0002F910F900FBE0F901F901895CF93DF9302
:1013F00090E0FC01EA50FE4F2491FC01E952FE4FBF
:101400008491882361F190E0880F991FFC01E355D6
:10141000FE4FC591D491FC01E554FE4FA591B491C6
:10142000611109C09FB7F894888120958223888331
:10143000EC912E230BC0623061F49FB7F894388191
:10144000822F809583238883EC912E2B2C939FBF32
:1014500006C08FB7F894E8812E2B28838FBFDF91C9
:10146000CF9108958F929F92AF92BF92CF92DF92C9
:10147000EF92FF926B017C010E94770B4B015C01A4
:10148000C114D104E104F104F1F00E94770BDC01F6
:10149000CB0188199909AA09BB09883E9340A10587
:1014A000B10570F321E0C21AD108E108F10888EE15
:1014B000880E83E0981EA11CB11CC114D104E10464
:1014C000F10419F7DDCFFF90EF90DF90CF90BF9040
:1014D000AF909F908F9008954091E1085091E2085D
:1014E0002091DF083091E00842175307B4F490913F
:1014F000E8009570E1F39091E80092FD19C08093A7
:10150000F1008091E1089091E20801968F7399278C
:10151000892B19F48EEF8093E8008091E108909177
:10152000E20801969093E2088093E10881E0089533
:1015300080E00895CF92DF92EF92FF920F931F9376
:10154000CF93DF931F92CDB7DEB7182F062FE42E6F
:10155000862F880F8E5F99830E946C0A83E00E9419
:101560006C0AF12EC12E9981D92E8C2D8F198017DE
:1015700098F4F601E7FE02C0849101C080810E94C8
:101580006C0A182F80E00E946C0A8123FFEFCF1AAB
:10159000DF0A8111EACF01C081E00F90DF91CF9186
:1015A0001F910F91FF90EF90DF90CF9008952FB78C
:1015B000F89487708093E9009091E800892F8072F9
:1015C00095FF04C09091F20080E4891B2FBF08951D
:1015D000615030F02091F100FC0120830196F8CF9A
:1015E000289884E680938D050895CF93DF931F920A
:1015F000CDB7DEB76983DC01ED91FC910280F38108
:10160000E02D41E050E0BE016F5F7F4F09950F90E4
:10161000DF91CF91089583E08093E9008091F200FB
:10162000882319F08AE38093E800089583E00E94FC
:10163000D70A90E00895FC018485958597FD0BC03D
:101640009FB7F89482E08093E9008091F2009FBFF9
:1016500090E0019608959FB7F89482E08093E900A6
:101660008091F2009FBF90E00895CF93DF931F9287
:10167000CDB7DEB7FC018485958597FD05C02FEFBA
:101680003FEF358724870BC0CE0101960E944508A5
:10169000019719F4898190E002C08FEF9FEF0F90BE
:1016A000DF91CF9108950F931F93CF93DF931F92F4
:1016B000CDB7DEB78C01FC018485958597FF0EC000
:1016C000CE0101960E944508019719F4298130E066
:1016D00002C02FEF3FEFF80135872487F80184859A
:1016E00095850F90DF91CF911F910F9108953FB78E
:1016F000F8948091E5089091E608A091E708B091F0
:10170000E80826B5A89B05C02F3F19F00196A11D3A
:10171000B11D3FBFBA2FA92F982F8827820F911D87
:10172000A11DB11DBC01CD0142E0660F771F881FCE
:10173000991F4A95D1F708951F920F920FB60F92F5
:1017400011242F933F938F939F93AF93BF938091D7
:10175000DB089091DC08A091DD08B091DE083091A3
:10176000E40823E0230F2D3720F40196A11DB11DBD
:1017700005C026E8230F0296A11DB11D2093E408A1
:101780008093DB089093DC08A093DD08B093DE081B
:101790008091E5089091E608A091E708B091E808EB
:1017A0000196A11DB11D8093E5089093E608A093D2
:1017B000E708B093E808BF91AF919F918F913F9157
:1017C0002F910F900FBE0F901F9018951F920F92A0
:1017D0000FB60F9211248F939F938091E100909107
:1017E000E100937F9093E10083FF0FC01092E90026
:1017F00091E09093EB001092EC0092E39093ED0057
:1018000010928E0598E09093F00082FF20C093E044
:101810009093E9009091F200992319F09AE3909344
:10182000E8009091E308992339F09091E3089150F2
:101830009093E308992389F190918D05992339F0CC
:1018400090918D05915090938D05992341F184FFDE
:1018500010C08091E2008E7E81608093E2008091D2
:10186000E1008F7E8093E1008091DA088E7E8061B6
:1018700011C080FF16C08091E2008E7E806180934F
:10188000E2008091E1008E7E8093E1008091DA0891
:101890008E7E81608093DA0804C05D9ACDCF289A4D
:1018A000D6CF9F918F910F900FBE0F901F901895DC
:1018B000BF92CF92DF92EF92FF920F931F93CF933D
:1018C000DF936C018B01EB019BEFB92E2097C1F0E8
:1018D0007E01C134D1051CF080E4E82EF12C80910A
:1018E000E80082FFFCCFC8018C1B9D0B6E2D8C0D78
:1018F0009D1D0E94E80AB092E800CE19DF09E6CFEC
:10190000C801DF91CF911F910F91FF90EF90DF9071
:10191000CF90BF900895DF92EF92FF920F931F93A5
:10192000CF93DF93D82E8A017B01E40EF51EEB01E5
:10193000CE15DF0571F0D7FE03C0FE01849101C012
:1019400088810E946C0A21968111F2CF8FEF9FEF60
:1019500001C0C801DF91CF911F910F91FF90EF90CF
:10196000DF9008950F931F93CF93DF931F92CDB70E
:10197000DEB782E0898342E450E06DE472E080E803
:101980000E948B0C0E942B04DC0112960D911C917D
:1019900013970115110569F0D801ED91FC910280B2
:1019A000F381E02DBE016F5F7F4FC801099597FF5E
:1019B00007C089810F90DF91CF911F910F910895FA
:1019C000F80100851185E5CF1F920F920FB60F9297
:1019D0001124CF92DF92EF92FF920F931F932F93D8
:1019E0003F934F935F936F937F938F939F93AF93A7
:1019F000BF93EF93FF93CF93DF93CDB7DEB76C9791
:101A0000DEBFCDBF1092E9008091E80083FFE7C1FF
:101A100068E0CE0145960E94E80A82EF8093E800D4
:101A20008D8987FF05C09091E80090FFFCCF03C02F
:101A30009EEF9093E800982F907609F0C6C09E899B
:101A40002F89188D91110CC0803829F48091D90804
:101A50008093F10002C01092F1001092F10042C197
:101A6000422F50E0512B913051F481113BC1413054
:101A7000510509F037C18091D9088D7F0BC0933093
:101A800061F481112FC14130510509F02BC18091C2
:101A9000D90882608093D90825C1953041F480919E
:101AA000E80080FFFCCF20682093E3001BC1963044
:101AB00009F05FC0EB8CFC8C1092E9001092E208F8
:101AC0001092E108123091F51092E0081092DF08B0
:101AD0000E94B20C99E0BE016F5F7F4FDB01E92FDE
:101AE0001D92EA95E9F799831A8391E09E8390EA23
:101AF00098879AEF99872091E1083091E208275F53
:101B00003F4F3C832B838D831092E9001092E208B3
:101B10001092E108F092E008E092DF0849E050E01E
:101B200080E00E948B0C0E94B20CDCC0F092E008B6
:101B3000E092DF080E942B04DC011296ED90FC90ED
:101B40001397E114F10409F4BAC0D701ED91FC91A7
:101B50000480F581E02DBE016B5E7F4FC7010995C2
:101B6000009719F00CF0BEC0C1C0F701E084F18409
:101B7000E8CF973009F4BAC0983021F481E080931F
:101B8000F100B0C0993009F0ADC0837009F0AEC06B
:101B9000E1E0F1E081E021E036E39081992361F01A
:101BA0008093E9002093EB0091919093EC003093A7
:101BB000ED008F5F873089F78EE78093EA001092FF
:101BC000EA008F8980938E058DC08B8D9C8D10923D
:101BD000E9001092E2081092E1089093E0088093E7
:101BE000DF08898D811150C08E899D89913A59F401
:101BF000813209F07BC047E050E06BE071E080E0AB
:101C00000E948B0C6FC0913209F070C0833289F44E
:101C1000888D90E0982F88272F89822BA0E0B0E054
:101C20008093070190930801A0930901B0930A01E2
:101C300059C0803239F467E070E08BE091E00E9497
:101C4000580C06C0823209F04DC08F898093120172
:101C50008091D808882319F0EEEFFAE002C0E0E0A6
:101C6000F8E080910B0190910C01A0910D01B091D1
:101C70000E01803B9440A105B10509F07BC0809125
:101C8000120180FF93C076C00E942B04DC011296E3
:101C90000D911C9113970115110541F1D801ED919A
:101CA000FC910190F081E02DBE016B5E7F4FC80179
:101CB0000995811117C0F80100851185ECCF11300D
:101CC00009F44EC0133091F48F89882309F445C07C
:101CD000823081F440E860E181EB92E00E949A0A50
:101CE000882321F08EEF8093E80079C081E2809311
:101CF000EB0075C0813029F440E86BE085EA92E0A2
:101D0000EDCF833099F70E942B04DC011296ED9001
:101D1000FC9013978E010F5F1F4F6801E114F104CF
:101D200079F0D701ED91FC910680F781E02DB801A3
:101D3000C7010995080F111DF701E084F184EECF6A
:101D4000D8011C92F60101900020E9F73197BF01FC
:101D50006C197D0940E0C601C1CF6FE872E002C096
:101D600063E972E06115710509F2FB01449150E0ED
:101D700080E846CF0FB6F894A895809160008861FE
:101D800080936000109260000FBEA895EE3F2AE09D
:101D9000F20739F08091FE0A9091FF0A91838083C7
:101DA000A1CF1092FF0A1092FE0A9CCFEE3F8AE06C
:101DB000F80731F0808191819093FF0A8093FE0AA9
:101DC00087E797E7918380839BE088E10FB6F894DB
:101DD000A895809360000FBE9093600083CF6C96AF
:101DE0000FB6F894DEBF0FBECDBFDF91CF91FF914C
:101DF000EF91BF91AF919F918F917F916F915F9183
:101E00004F913F912F911F910F91FF90EF90DF9095
:101E1000CF900F900FBE0F901F9018957F928F92CA
:101E20009F92AF92BF92CF92DF92EF92FF920F9369
:101E30001F93CF93DF93C82E8B017A0180918E057B
:101E4000811103C08FEF9FEF75C08091DA0880FF8A
:101E500005C08091E00082608093E000CE2DDF2DF0
:101E6000D12C8AEF882E8C2D8770B82E8C2D807205
:101E7000A82E8C2D8074982E9AE3792E209709F441
:101E800052C08C2D0E94D70A282F81110AC08A9433
:101E90008820C1F261E070E080E090E00E94320AA8
:101EA000EDCF90E0C817D9070CF42C2F3FB7F8946A
:101EB000B092E9008091E80085FF33C0822F90E066
:101EC000C81BD90BAA2029F02150A8F01092F100CC
:101ED000FBCFF801C7FE07C0215058F04491409352
:101EE000F1003196F9CF215020F041914093F1005B
:101EF000FACF080F191FDD2019F07092E8000AC010
:101F00008091E80085FD08C07092E800DD24D3943C
:101F1000209739F0D12C05C0209719F491107092B8
:101F2000E8003FBFABCFD110ACCF5D9884E6809383
:101F3000E308C701DF91CF911F910F91FF90EF90C0
:101F4000DF90CF90BF90AF909F908F907F9008953B
:101F5000CF93DF93EC0180911201882331F083E06D
:101F60000E940E0F1816190634F081E090E09B8352
:101F70008A8380E090E0DF91CF910895CF93DF9343
:101F8000CDB7DEB72C970FB6F894DEBF0FBECDBF2E
:101F9000789484B5826084BD84B5816084BD85B544
:101FA000826085BD85B5816085BD80916E00816050
:101FB00080936E00109281008091810082608093F6
:101FC00081008091810081608093810080918000F8
:101FD0008160809380008091910082608093910065
:101FE0008091910081608093910080919000816048
:101FF000809390008091C10084608093C1008091A3
:10200000C10082608093C1008091C1008160809393
:10201000C1008091C30081608093C3008091C000A3
:1020200082608093C0008091C20081608093C20072
:1020300080917A00846080937A0080917A00826037
:1020400080937A0080917A00816080937A008091F9
:102050007A00806880937A0010928E051092D908D9
:102060001092DA088091D70081608093D70080EACF
:102070008093D80089B5806189BD89B5826089BDAA
:1020800009B400FEFDCF61E070E080E090E00E94C6
:10209000320A8091D8008F7C80618093D800809133
:1020A000E000807F8093E0008091E1008E7E80934D
:1020B000E1008DE08093E200559A209AEEEFFFE771
:1020C000859194918B3F9C4D19F481E08093D808C1
:1020D00060E089E00E940C0961E089E00E94F60955
:1020E00060E085E00E94F609E0911C06F0911D0673
:1020F0000084F185E02D8CE196E00995E0911C06C5
:10210000F0911D060284F385E02D8CE196E009959F
:102110000E9480078FEF9FEF9093AC058093AB05F3
:102120008FE38F9380E88F931F921F9289E691E04F
:102130009F938F9388E991E09F938F930E944F25FF
:10214000F8941092C00081E08093C1001092C20008
:102150001092C3001092C40083E08093BF0080E21D
:102160008093D1001092BF001092BF001092BE0069
:1021700084E080937200789482E08093300610921D
:1021800034068091310660E00E94F60969E671E04C
:1021900085ED91E00E9448250FB6F894DEBF0FBE92
:1021A000CDBF7CE9272E73E0372E8FE995E00E94A2
:1021B0001B0B181619060CF073C08FE995E00E94EE
:1021C000350B80937005863599F03CF48434B1F07A
:1021D000813559F08F33C1F063C0813731F08637D4
:1021E00039F0843609F05CC009C010926B0503C059
:1021F00081E080936B0510926A0552C081E0809364
:102200006A0510926B054CC089E691E09F938F930D
:102210009F938F9380EE91E09F938F930E944F2521
:102220008DEF91E09F938F930E94C60485E00E94FA
:10223000E3080FB6F894DEBF0FBECDBF019719F4C7
:1022400089E092E002C08EE092E09F938F930E941B
:10225000C6040F900F9084E192E09F938F930E94A9
:10226000C60481E795E00E942A068EE292E09F93E1
:102270008F930E94C60460917505709176058091D8
:1022800077059091780540E10E94B80769E671E012
:1022900084EA94E00E9448250F900F900F900F90D1
:1022A00087E396E090939A05809399058091340690
:1022B00090E090939C0580939B058091010790E0AE
:1022C00090939E0580939D0580913006853009F09E
:1022D00043C78091390690913A06885891098D3507
:1022E000910588F480913406843041F480913B0656
:1022F00090913C068097479708F4FFC1809134067F
:10230000843408F0E1C1809134068A3108F452C067
:102310008091370690913806843F914080F4109266
:102320009805109297058FEF9FEFDC01809393053E
:1023300090939405A0939505B093960559C080910C
:10234000390690913A0685974B97A0F5EDE3F6E0B4
:1023500082E090E0C12CD12C7601AC014F5F5F4F41
:102360002091340630E0421753075CF4DF011297E6
:102370002D913C91275031092730310508F406C2D0
:10238000CA01019795958795909398058093970535
:102390000C972CF410929805109297050BC0C092E0
:1023A0009305D0929405E0929505F092960584E00D
:1023B00090E00EC3809134068A3108F44CC08091BD
:1023C0003706909138068032934008F4A8CF809168
:1023D000390690913A06C697869708F4F4C13BC037
:1023E000C0929305D0929405E0929505F0929605DF
:1023F0008BE090E0EDC220813181255231092B31F3
:10240000310508F0F0C1CC0CDD1CEE1CFF1C6894FB
:10241000C0F802963496AC014F5F5F4F20913406AE
:1024200030E04217530754F4DF0112972D913C918D
:102430002C5031092B303105F0F2CA0101979595E6
:10244000879590939805809397050C974CF610927A
:1024500098051092970580913406823208F44DC099
:102460008091390690913A060697079708F045C083
:10247000EDE3F6E082E090E0C12CD12C76019C01E6
:102480002F5F3F4F4091340650E024173507E4F4A6
:10249000DF0112974D915C9111974E5151094731CF
:1024A000510508F0ADC1CC0CDD1CEE1CFF1C68947E
:1024B000C0F840815181349643505109453051054F
:1024C00010F40296DCCFC9010197959587959093FA
:1024D00098058093970540972CF4109298051092D8
:1024E00097050BC0C0929305D0929405E092950594
:1024F000F09296058CE090E06BC218861F8281E016
:1025000090E09A838983809134068D3008F46BC003
:1025100049E753E0BE01695F7F4FCE0101960E94FB
:102520006F08892B09F05FC049E753E0BE01695F7E
:102530007F4FCE0101960E946F08019709F053C0AA
:1025400049E753E0BE01695F7F4FCE0101960E94CB
:102550006F08892B09F047C0812C912C540100E0B1
:1025600010E08091340690E029813A8128173907DC
:102570005CF549E753E0BE01695F7F4FCE010196EC
:102580000E946F087C0149E753E0BE01695F7F4FFD
:10259000CE0101960E946F08B1E0EB16F10449F4F8
:1025A000892B09F5880C991CAA1CBB1C689480F81F
:1025B00008C0EF28C1F40197B1F4880C991CAA1C3B
:1025C000BB1C0F5F1F4FCDCF10939805009397054D
:1025D0008092930590929405A0929505B0929605ED
:1025E00081E090E0F5C118861F8281E090E09A8337
:1025F000898380919B0590919C05181619060CF013
:1026000058C0E0919905F0919A0582E090E09A8394
:1026100089838281938189974E9708F04AC083E02D
:1026200090E09A838983848195810B970A9708F0BB
:1026300040C04CEB51E0BE01695F7F4FCE01019677
:102640000E946F08892BA9F54CEB51E0BE01695F30
:102650007F4FCE0101960E946F08019751F5812CA2
:10266000912C540100E010E029813A8180919B0572
:1026700090919C05281739070CF005C14CEB51E0EF
:10268000BE01695F7F4FCE0101960E946F086C0109
:102690000330110509F0C1C04CEB51E0BE01695F88
:1026A0007F4FCE0101960E946F08C816D90609F423
:1026B000B4C0E0919905F0919A0582819381C69703
:1026C000869708F4EFC081C580913B0690913C0647
:1026D000825491098E9708F016CE80E090E040E099
:1026E00050E0BA01FC01E35CF94F208131812950AF
:1026F000310929303105C8F006CE80913D06909110
:102700003E060997099708F0F9CD109298051092A6
:1027100097058FEF9FEFDC018093930590939405CD
:10272000A0939505B093960521C0FC01E15CF94F9B
:10273000208131812751310922313105D0F4440FF4
:10274000551F661F771F416004968038910551F62A
:1027500080E290E0909398058093970540939305CD
:1027600050939405609395057093960583E090E0EF
:102770002FC120813181265031092730310508F0E1
:10278000C2CD440F551F661F771FDECF20813181D8
:10279000235131092F30310548F4CC0CDD1CEE1CDF
:1027A000FF1C6894C0F802963496D7CD2081318101
:1027B0002A5031092930310508F0FCCDCC0CDD1C44
:1027C000EE1CFF1CF0CF80913B0690913C06C69713
:1027D000869708F040CEEFE3F6E083E090E0C12C6E
:1027E000D12C760118CE208131812C5031092A302C
:1027F000310508F030CECC0CDD1CEE1CFF1C09CEE0
:102800004D915C914C5051094B30510508F075CEFB
:10281000CC0CDD1CEE1CFF1C4CCE4CEB51E0BE0181
:10282000695F7F4FCE0101960E946F087C010330E3
:10283000110569F44CEB51E0BE01695F7F4FCE0199
:1028400001960E946F08E816F90609F032CFC1140C
:10285000D10459F4EA94EF2809F02BCF880C991C85
:10286000AA1CBB1C689480F80BC0CA94CD2809F040
:1028700020CFEF2809F01DCF880C991CAA1CBB1C87
:102880000F5F1F4FF1CE109398050093970580922C
:10289000930590929405A0929505B092960582E0DA
:1028A00090E096C0848195814B97459708F08DC440
:1028B000DF0116967F0186ECE80EF11C20E030E087
:1028C00040E050E060E070E080E090E00D911C910D
:1028D0001197095011090830110508F076C41296B5
:1028E0000D911C911397015111090D30110520F51F
:1028F00001E00E940C2321601496AE15BF0531F74C
:102900002093930530939405409395055093960535
:1029100000E20E942723209391053093920585E0E1
:1029200090E09093900580938F0580E390E09093E2
:1029300098058093970550C012960D911C9113979E
:10294000045011090530110508F03FC401E00E9450
:102950000C23D2CFA80142505109DA014D915C916C
:10296000495051094830510508F0DDC4BC016F5F82
:102970007F4FD8014D915C91475051094730510527
:1029800008F0D3C6220F331F216002960C5F1F4F41
:102990004091340650E04450510984179507D4F211
:1029A00001979595879590939805809397058A97B9
:1029B0000CF4B9C4C901330FAA0BBB0B8093930568
:1029C00090939405A0939505B093960589E090E0C7
:1029D0009093900580938F0510916B05111104C0A1
:1029E00080916A05882331F069E671E086EA94E017
:1029F0000E94482580918F0590919005029709F0DB
:102A0000BFC18091930590919405A0919505B091D7
:102A100096059F778093930590939405A0939505D1
:102A2000B0939605409175055091760560917705B4
:102A30007091780584179507A607B70711F00E94D3
:102A40009D048091930590919405A0919505B09176
:102A50009605893234E093073FE0A30730E8B307D7
:102A600009F44CC08A329440AF40B04809F086C0A7
:102A700085E00E94E30820916B05019721F5211163
:102A800004C080916A058823D9F084E392E09F9383
:102A90008F930E94C6046091930570919405809174
:102AA00095059091960540E10E94B80783E592E074
:102AB0009F938F930E94C6040F900F900F900F90DA
:102AC0000E946B0684C1211105C080916A0588238C
:102AD00009F47DC18EE392E09F938F930E94C60418
:102AE000609193057091940580919505909196055C
:102AF00040E10E94B80786E692E03BC085E00E9474
:102B0000E30820916B05892BD1F4211104C0809139
:102B10006A058823A9F286E892E09F938F930E942A
:102B2000C6046091930570919405809195059091EC
:102B3000960540E10E94B80785EA92E0B9CF2111DD
:102B400005C080916A05882309F441C181E992E0BA
:102B50009F938F930E94C604609193057091940592
:102B6000809195059091960540E10E94B80787EB0A
:102B700092E09F938F930E94C60425C173E0E72ED5
:102B800077E0F72E00E010E06AE873E0CE010196EE
:102B90000E94DA03D7014D915D916D917C918091F6
:102BA000930590919405A0919505B09196054817CD
:102BB00059076A077B0709F0D5C080916C05909191
:102BC0006D05A0916E05B0916F05892B8A2B8B2B1B
:102BD00009F0B0C08DE0809FF001819FF00D1124BD
:102BE000ED5FF84F678170856115710539F0438598
:102BF0005485CE0101960E949A030CC089819A8166
:102C0000009711F00E94D8231A8219821E821D8219
:102C10001C821B828DE0809FF001819FF00D1124AA
:102C2000ED5FF84F8481811113C041E065818CE133
:102C300096E00E949806892B89F1E0911C06F0919C
:102C40001D060284F385E02D8CE196E0099526C0EF
:102C5000813021F525813681EAE0F6E080E090E0E0
:102C6000419151910196452B41F4880F991FFC0128
:102C7000E85FF94F3183208303C08430910581F7E9
:102C8000E0910806F09109060190F081E02D48E0FE
:102C900050E06AE076E088E096E0099580916B0567
:102CA000811104C080916A05882389F186ED92E044
:102CB0009F938F930E94C604609193057091940531
:102CC000809195059091960540E10E94B80789EEA4
:102CD00092E09F938F930E94C604E0919F05F0912C
:102CE000A0054D815E8169817A810280F381E02DAA
:102CF0008FE995E0099586EF92E09F938F930E946C
:102D0000C6040F900F900F900F900F900F902FB759
:102D1000F8948091DB089091DC08A091DD08B091D7
:102D2000DE082FBF8093660590936705A093680522
:102D3000B09369052FB7F8948091DB089091DC0877
:102D4000A091DD08B091DE082FBF80936C059093B1
:102D50006D05A0936E05B0936F0589819A810E94DD
:102D6000D82335C089819A810E94D8230F5F1F4FD5
:102D7000BDE0EB0EF11C0332110509F005CF27C0B1
:102D8000112329F182E093E09F938F930E94C60460
:102D900081E795E00E942A068EE292E09F938F934E
:102DA0000E94C60460917505709176058091770543
:102DB0009091780540E10E94B80769E671E084EAE5
:102DC00094E00E9448250F900F900F900F908091F3
:102DD0006A05882309F4ACC180919D0590919E05F8
:102DE000892B49F087E193E09F938F930E94C6045B
:102DF0000F900F902FC085E693E09F938F930E94D2
:102E0000C6048FE895E00E942A06A9E8B3E0BF93C4
:102E1000AF930E94C60482E793E09F938F930E9432
:102E2000C6040E9427088FE793E09F938F930E9428
:102E3000C60480919705909198050E94F90782E851
:102E400093E09F938F930E94C6040FB6F894DEBF61
:102E50000FBECDBF8BE893E09F938F930E94C60473
:102E600080919B0590919C0501970E94F90783E949
:102E700093E09F938F930E94C6040F900F900F9042
:102E80000F9001E010E032E3932E40EAC42E43E0BD
:102E9000D42E56E9A52E51E0B52E80919B05909138
:102EA0009C05081719070CF07EC0E0919905F09178
:102EB0009A05C801880F991FE80FF91F8081918139
:102EC000989E7001999EF00C11242701612C712CA1
:102ED00000FD21C0BF92AF920E94C6040F900F90D8
:102EE00038EEE31633E0F30680F43F922F920E940F
:102EF000C6040F900F9084E6E816F10430F43F9278
:102F00002F920E94C6040F900F904AE0C301B201B5
:102F10000E94B80738C0A8E9B3E0BF93AF930E94FE
:102F2000C604AEE9B3E0BF93AF930E94C6040F900E
:102F30000F900F900F90F8EEEF16F3E0FF0680F47D
:102F40003F922F920E94C6040F900F9024E6E21643
:102F5000F10430F43F922F920E94C6040F900F901C
:102F60004AE0C301B2010E94B80780919B0590918D
:102F70009C0501970817190734F4DF92CF920E943D
:102F8000C6040F900F90C80187709927892B41F4D0
:102F9000A9E8B3E0BF93AF930E94C6040F900F90CF
:102FA0000F5F1F4F7ACF88E893E09F938F930E9423
:102FB000C60483EA93E09F938F930E94C60482EB3A
:102FC00093E09F938F930E94C60480919B059091FC
:102FD0009C0501970E94F9078BEB93E09F938F93D9
:102FE0000E94C6040FB6F894DEBF0FBECDBFEE241C
:102FF000E394F12C12E380919B0590919C05E816D7
:10300000F9068CF5E0919905F0919A05C701880FB2
:10301000991FE80FF91F80819181189FB001199FB6
:10302000700D112480E090E04AE00E94B807809182
:103030009B0590919C050197E816F90644F4A1ECD4
:10304000B3E0BF93AF930E94C6040F900F90E0FCD3
:1030500006C03F922F920E94C6040F900F90FFEF80
:10306000EF1AFF0AC8CF83EC93E09F938F930E94DF
:10307000C60486EC93E09F938F930E94C6048FE86A
:1030800095E00E942A063F922F920E94C6040E9459
:10309000270888E893E09F938F930E94C60480914D
:1030A0008F05909190050FB6F894DEBF0FBECDBF8F
:1030B0008F3F3FEF9307B1F10597C9F48CEC93E094
:1030C0009F938F930E94C604609191057091920521
:1030D00080E090E040E10E94B80784EE93E09F9387
:1030E0008F930E94C6040F900F900F900F9088EE60
:1030F00093E09F938F930E94C60460919305709113
:103100009405809195059091960540E10E94B8073D
:1031100084EE93E09F938F930E94C6040F900F90CC
:103120000F900F9069E671E086EA94E00E944825CE
:1031300080E1EFE8F5E0A1E7B5E001900D928A9516
:10314000E1F782E0809330061092340611C082E0ED
:10315000809330061092340680916C0590916D0535
:10316000A0916E05B0916F05892B8A2B8B2B71F482
:1031700062E370E080E090E00E94320A80E090E03C
:10318000892B09F412C80E9400000FC82FB7F894C9
:103190008091DB089091DC08A091DD08B091DE08F9
:1031A0002FBF40916C0550916D0560916E05709137
:1031B0006F05841B950BA60BB70B86399105A105EE
:1031C000B105B0F20E949D04D3CF809134068933BB
:1031D00070F182819381895791098335910508F4B3
:1031E00044C125C0D90112966D917C911397665107
:1031F00071096131710508F064C1D701C601880FFA
:10320000991FAA1FBB1F6C017D016894C0F84E5F17
:103210005F4F2C5F3F4F4B33510509F435C1D90146
:103220006D917C916A50710969307105D8F2809175
:103230003406823231F4828193810A97099708F427
:1032400050C1828193818957910983359105D0F4CA
:10325000809134068132B0F084819581CA97899734
:1032600088F49F012A5F3F4FC12CD12C760143E0A7
:1032700050E0D9016D917C916A50710969307105F6
:1032800008F44EC1828193818C549109C59778F4DA
:1032900080913406843031F48481958180974797FA
:1032A00008F49EC180913406843408F080C1809176
:1032B0003406863460F1828193810C970B9708F471
:1032C000DDC125C0D90112966D917C9113976E5185
:1032D00071096731710508F009C2D701C601880F6D
:1032E000991FAA1FBB1F6C017D016894C0F84E5F37
:1032F0005F4F2C5F3F4F4534510509F4DAC1D901C6
:103300006D917C916C5071096B307105D8F2809190
:103310003406883540F082819381855891098B3538
:10332000910508F4F3C1809134068032E1F4828182
:10333000938106970697B8F4848195810997099738
:1033400090F49F012A5F3F4FBF01625C7F4FC12C09
:10335000D12C7601D9014D915C91465051094630EE
:10336000510508F4EFC120919B0530919C053C87E5
:103370002B87263031050CF4EACE8F010A5F1F4FF0
:10338000B5ECCB2EBDE9DB2EBCE1EB2EB1E8FB2E7C
:1033900083E090E09A878987D8016D917C91F8014C
:1033A0003497A080B18080E090E00E9445202B01FE
:1033B0003C01B50180E090E00E9445204B015C019A
:1033C0002DEC3CEC4CE45FE30E94A6209B01AC0199
:1033D000C301B2010E94402087FD17C02DEC3CECD8
:1033E0004CE45FE3C301B2010E94A6209B01AC0143
:1033F000C501B4010E944020E82F880FFF0BEE2783
:10340000FF0FEE1FFF27319602C0E0E0F0E0A701BA
:10341000960163E971E080E091E00E94D4226F019F
:10342000FF0FEE08FF08C626D726E826F926E9850D
:10343000FA853196FA87E9870E5F1F4F2B853C8509
:10344000E217F30709F0A8CFC0929305D092940534
:10345000E0929505F092960580E290E090939805B1
:10346000809397058FEF9FEFB3CA84819581CA97A8
:10347000899708F0DCCE9F012A5F3F4FC12CD12CE9
:10348000760143E050E0CBCE9F012A583F4FD9014F
:103490002D913C912A5031092930310508F0C7CED1
:1034A0002CE130E03093980520939705C092930566
:1034B000D0929405E0929505F09296058AE090E00E
:1034C00087CAD90112966D917C9113976650710944
:1034D0006730710508F0ABCECC0CDD1CEE1CFF1C78
:1034E00096CE20913406CF01820F911D820F911D3F
:1034F000DC0112978D919C910A97099708F0A1CE53
:1035000010929805109297058FEF9FEFDC01809342
:10351000930590939405A0939505B09396054DC19E
:10352000D90112966D917C911397665171096131A1
:10353000710568F5D701C601880F991FAA1FBB1F27
:103540006C017D016894C0F84E5F5F4F2C5F3F4F68
:103550004332510509F08DCE9F012A5B3F4FD901BF
:103560002D913C912A5031092930310508F08ACE3D
:1035700020E130E03093980520939705C0929305A1
:10358000D0929405E0929505F092960516C1D90166
:1035900012966D917C911397665071096730710591
:1035A00008F070CECC0CDD1CEE1CFF1CCDCF84814E
:1035B000958189549109C39708F079CE9F012A5FBC
:1035C0003F4FBF016A577F4FC12CD12C7601D901E3
:1035D0004D915C914950510949305105B8F067CE81
:1035E000868197810997099708F05CCE109298051B
:1035F000109297058FEF9FEFDC01809393059093D6
:103600009405A0939505B0939605DAC0D90112965A
:103610004D915C9113974651510941315105F0F498
:10362000D701C601880F991FAA1FBB1F6C017D011E
:103630006894C0F82C5F3F4F2617370741F620E209
:1036400030E03093980520939705C0929305D0926F
:103650009405E0929505F0929605B2C0D9011296B4
:103660004D915C911397465051094730510508F030
:103670001ECECC0CDD1CEE1CFF1CDCCF84819581A2
:103680000997099708F043CE868197818C974F97C9
:1036900008F03DCE8085918589974D9708F037CE0B
:1036A0009F01265F3F4FC12CD12C760145E050E0B1
:1036B00026CE9F0126573F4FD9012D913C912C508A
:1036C00031092B30310508F022CE20E230E0309372
:1036D000980520939705C0929305D0929405E092A7
:1036E0009505F092960588E090E072C9D90112968E
:1036F0006D917C911397695071096930710508F0DB
:1037000006CECC0CDD1CEE1CFF1CF1CD8481958116
:10371000825491098E9708F006CE8F01045C1F4FEA
:103720008DE190E020E030E033C9D8014D915C910B
:10373000485151094231510510F0CB0131C9220FD6
:10374000331F23C9D90112964D915C9113974951AA
:1037500051094331510508F5D701C601880F991F5A
:10376000AA1FBB1F6C017D016894C0F82C5F3F4FFE
:103770002617370709F0EECD2EE030E0309398059C
:1037800020939705C0929305D0929405E0929505F9
:10379000F09296058FE090E01BC9D90112964D91E9
:1037A0005C911397495051094930510508F0DBCD20
:1037B000CC0CDD1CEE1CFF1CD9CF86E090E008C9C4
:1037C00087E090E005C9BC01625F7F4FFC01838107
:1037D00048E050E080640C940E0F0A970C94E31BB1
:1037E000CF93DF93CAECD8E02D978F8198850E9404
:1037F000D82387E0C330D807B9F7DF91CF91089578
:10380000CF931092A2051092A10588EE93E0A0E05C
:10381000B0E08093A3059093A405A093A505B09371
:10382000A60589E291E09093A00580939F058FEF14
:103830009FEF9093AC058093AB058BE391E0909361
:103840000906809308068091D008811113C0109258
:10385000CB081092CA0884E392E09093CD0880933D
:10386000CC0889E190E09093CF088093CE0881E066
:103870008093D00880910006811107C08FEE95E0FB
:103880000E943F0481E080930006E091FA05F091E8
:10389000FB05309739F48AEC98E09093FB05809310
:1038A000FA050AC080819181009711F0FC01FACFDE
:1038B0008AEC98E0918380832091CE083091CF08E4
:1038C0008091FC059091FD05820F931F9093FD055B
:1038D0008093FC0581E0809316068093170628E20A
:1038E00036E0309319062093180610921B061092AA
:1038F0001A0610921F0610921E0621E431E0309342
:103900001306209312062FE431E030931D06209316
:103910001C068093290680932A0610922B0610928B
:103920002D0610922C0610922F0610922E0681EC76
:10393000809328060E942B04FC01418120911606E9
:1039400030E0240F311D2830310524F462E176E0A7
:103950000E94EF0380E294E0AFE0B0E880930307B9
:1039600090930407A0930507B093060710920707EA
:1039700080E590E090930907809308076BEA74E074
:103980008AE097E00E94DA0381E294E0AFE0B0E8D9
:103990008093100790931107A0931207B093130719
:1039A000109214078FE490E0909316078093150708
:1039B00060EB74E087E197E00E94DA038EE194E027
:1039C000AFE0B0E880931D0790931E07A0931F07F8
:1039D000B09320071092210782E590E0909323078F
:1039E000809322076BE375E084E297E00E94DA039C
:1039F0008FE194E0AFE0B0E880932A0790932B0723
:103A0000A0932C07B0932D0710922E0781E590E02C
:103A10009093300780932F076FE575E081E397E07F
:103A20000E94DA0382E294E0AFE0B0E880933707C7
:103A300090933807A0933907B0933A0710923B0749
:103A400088E290E090933D0780933C0766EB74E03A
:103A50008EE397E00E94DA038BE094E0AFE0B0E8F9
:103A60008093440790934507A0934607B093470778
:103A7000109248078BE290E090934A0780934907A1
:103A80006DEB74E08BE497E00E94DA038AE094E047
:103A9000AFE0B0E88093510790935207A09353078B
:103AA000B0935407109255078AE290E0909357071D
:103AB0008093560761EC74E088E597E00E94DA0392
:103AC00083E294E0AFE0B0E880935E0790935F07F5
:103AD000A0936007B09361071092620789E290E0BB
:103AE00090936407809363076BEC74E085E697E03E
:103AF0000E94DA0386E294E0AFE0B0E880936B07BF
:103B000090936C07A0936D07B0936E07C1E0C093CC
:103B10006F078DE890E090937107809370076FECCA
:103B200074E082E797E00E94DA038FE094E0AFE070
:103B3000B0E88093780790937907A0937A07B093C1
:103B40007B07C0937C078CE090E090937E07809386
:103B50007D076DED74E08FE797E00E94DA0382E362
:103B600094E0AFE0B0E88093850790938607A09338
:103B70008707B0938807C093890780E490E090930B
:103B80008B0780938A076AEE74E08CE897E00E94C6
:103B9000DA0389E194E0AFE0B0E880939207909374
:103BA0009307A0939407B0939507C093960787EB6C
:103BB00090E090939807809397076FEE74E089E9FF
:103BC00097E00E94DA0386E194E0AFE0B0E88093EA
:103BD0009F079093A007A093A107B093A207C0935B
:103BE000A3078DEC90E09093A5078093A40764EF62
:103BF00074E086EA97E00E94DA0388E194E0AFE09F
:103C0000B0E88093AC079093AD07A093AE07B09354
:103C1000AF07C093B00780EB90E09093B20780931A
:103C2000B10769EF74E083EB97E00E94DA0387E164
:103C300094E0AFE0B0E88093B9079093BA07A093FF
:103C4000BB07B093BC07C093BD0782EB90E0909395
:103C5000BF078093BE076FEF74E080EC97E00E948F
:103C6000DA0385E194E0AFE0B0E88093C607909373
:103C7000C707A093C807B093C907C093CA0784EBCE
:103C800090E09093CC078093CB0766E075E08DECD5
:103C900097E00E94DA0384E194E0AFE0B0E880931B
:103CA000D3079093D407A093D507B093D607C093BA
:103CB000D70783EB90E09093D9078093D8076AE009
:103CC00075E08AED97E00E94DA038BE194E0AFE0C3
:103CD000B0E88093E0079093E107A093E207B093E8
:103CE000E307C093E40786EB90E09093E6078093A8
:103CF000E5076EE075E087EE97E00E94DA038AE15F
:103D000094E0AFE0B0E88093ED079093EE07A093C6
:103D1000EF07B093F007C093F10785EB90E0909325
:103D2000F3078093F20767E175E084EF97E00E9464
:103D3000DA038AE594E0AFE0B0E88093FA07909365
:103D4000FB07A093FC07B093FD071092FE0787E1E5
:103D500090E0909300088093FF076CE175E081E0AC
:103D600098E00E94DA0381E094E0AFE0B0E880934D
:103D7000070890930808A0930908B0930A081092C6
:103D80000B088EE190E090930D0880930C0863E699
:103D900074E08EE098E00E94DA0382E094E0AFE005
:103DA000B0E88093140890931508A0931608B09378
:103DB0001708109218088FE190E090931A088093EA
:103DC000190865E275E08BE198E00E94DA0383E070
:103DD00094E0AFE0B0E88093210890932208A0938C
:103DE0002308B09324081092250880E290E0909375
:103DF00027088093260867E275E088E298E00E9431
:103E0000DA0384E094E0AFE0B0E880932E0890936A
:103E10002F08A0933008B09331081092320881E245
:103E200090E0909334088093330869E275E085E36D
:103E300098E00E94DA0385E094E0AFE0B0E8809378
:103E40003B0890933C08A0933D08B0933E08109225
:103E50003F0882E290E090934108809340086FE130
:103E600074E082E498E00E94DA0386E094E0AFE038
:103E7000B0E88093480890934908A0934A08B0930B
:103E80004B0810924C0883E290E090934E08809388
:103E90004D0863E274E08FE498E00E94DA0387E063
:103EA00094E0AFE0B0E88093550890935608A09353
:103EB0005708B09358081092590884E290E0909304
:103EC0005B0880935A086BE275E08CE598E00E94ED
:103ED000DA0388E094E0AFE0B0E880936208909362
:103EE0006308A0936408B09365081092660885E2A1
:103EF00090E090936808809367086DE275E089E62A
:103F000098E00E94DA0389E094E0AFE0B0E88093A3
:103F10006F0890937008A0937108B0937208109284
:103F2000730886E290E090937508809374086FE2BE
:103F300075E086E798E00E94DA0380E094E0AFE065
:103F4000B0E880937C0890937D08A0937E08B0939E
:103F50007F081092800887E290E090938208809317
:103F6000810861E375E083E898E00E94DA0382E16A
:103F700094E0AFE0B0E88093890890938A08A0931A
:103F80008B08B0938C08C0938D088CE990E09093D7
:103F90008F0880938E0863E375E080E998E00E94C3
:103FA000DA0383E194E0AFE0B0E880939608909361
:103FB0009708A0939808B0939908C0939A088DE940
:103FC00090E090939C0880939B086EE375E08DE9E8
:103FD00098E00E94DA038EE094E0AFE0B0E88093CE
:103FE000A3089093A408A093A508B093A608C09333
:103FF000A70882EE90E09093A9088093A80869E44E
:1040000075E08AEA98E00E94DA0380E194E0AFE08C
:10401000B0E88093B0089093B108A093B208B09331
:10402000B308C093B40889EE90E09093B6088093EB
:10403000B5086EE475E087EB98E00E94DA0381E151
:1040400094E0AFE0B0E88093BD089093BE08A093E1
:10405000BF08B093C008C093C1088AEE90E0909367
:10406000C3088093C20868E575E084EC98E00E947C
:10407000DA038AE08093310610923306CF910895D7
:104080000E94822008F481E00895E89409C097FB1B
:104090003EF490958095709561957F4F8F4F9F4F1F
:1040A0009923A9F0F92F96E9BB279395F695879563
:1040B00077956795B795F111F8CFFAF4BB0F11F426
:1040C00060FF1BC06F5F7F4F8F4F9F4F16C08823CD
:1040D00011F096E911C0772321F09EE8872F762F03
:1040E00005C0662371F096E8862F70E060E02AF044
:1040F0009A95660F771F881FDAF7880F9695879530
:1041000097F90895990F0008550FAA0BE0E8FEEF04
:1041100016161706E807F907C0F012161306E4078B
:10412000F50798F0621B730B840B950B39F40A2684
:1041300061F0232B242B252B21F408950A2609F462
:10414000A140A6958FEF811D811D08950E94B92081
:104150000C942A210E941C2138F00E94232120F077
:10416000952311F00C9413210C94192111240C9413
:104170005E210E943B2170F3959FC1F3950F50E0A3
:10418000551F629FF001729FBB27F00DB11D639F09
:10419000AA27F00DB11DAA1F649F6627B00DA11DAF
:1041A000661F829F2227B00DA11D621F739FB00D55
:1041B000A11D621F839FA00D611D221F749F3327C5
:1041C000A00D611D231F849F600D211D822F762F5E
:1041D0006A2F11249F5750409AF0F1F088234AF03B
:1041E000EE0FFF1FBB1F661F771F881F91505040A7
:1041F000A9F79E3F510580F00C9413210C945E2189
:104200005F3FE4F3983ED4F3869577956795B7952D
:10421000F795E7959F5FC1F7FE2B880F911D969547
:10422000879597F9089597F99F6780E870E060E0B7
:1042300008959FEF80EC089500240A94161617063F
:1042400018060906089500240A9412161306140687
:1042500005060895092E0394000C11F4882352F0EA
:10426000BB0F40F4BF2B11F460FF04C06F5F7F4FA2
:104270008F4F9F4F089557FD9058440F551F59F089
:104280005F3F71F04795880F97FB991F61F09F3F43
:1042900079F087950895121613061406551FF2CF6C
:1042A0004695F1DF08C0161617061806991FF1CFBC
:1042B00086957105610508940895E894BB276627E3
:1042C0007727CB0197F908950E94A621A59F900D0D
:1042D000B49F900DA49F800D911D112408952F92DD
:1042E0003F924F925F926F927F928F929F92AF9286
:1042F000BF92CF92DF92EF92FF920F931F93CF93D3
:10430000DF93CDB7DEB7CA1BDB0B0FB6F894DEBF69
:104310000FBECDBF09942A88398848885F846E848F
:104320007D848C849B84AA84B984C884DF80EE80D9
:10433000FD800C811B81AA81B981CE0FD11D0FB6E2
:10434000F894DEBF0FBECDBFED010895A29FB0016E
:10435000B39FC001A39F700D811D1124911DB29FB9
:10436000700D811D1124911D08955058BB27AA2757
:104370000E94CD210C942A210E941C2138F00E9419
:10438000232120F039F49F3F19F426F40C941921CD
:104390000EF4E095E7FB0C941321E92F0E943B21DA
:1043A00058F3BA17620773078407950720F079F46A
:1043B000A6F50C945D210EF4E0950B2EBA2FA02DDE
:1043C0000B01B90190010C01CA01A0011124FF27C2
:1043D000591B99F0593F50F4503E68F11A16F040BD
:1043E000A22F232F342F4427585FF3CF46953795BC
:1043F0002795A795F0405395C9F77EF41F16BA0B81
:10440000620B730B840BBAF09150A1F0FF0FBB1F2E
:10441000661F771F881FC2F70EC0BA0F621F731F77
:10442000841F48F4879577956795B795F7959E3FD4
:1044300008F0B0CF9395880F08F09927EE0F979565
:10444000879508950E9436220C942A210E942321E8
:1044500058F00E941C2140F029F45F3F29F00C9491
:10446000132151110C945E210C9419210E943B21BF
:1044700068F39923B1F3552391F3951B550BBB2793
:10448000AA2762177307840738F09F5F5F4F220FD8
:10449000331F441FAA1FA9F335D00E2E3AF0E0E8CF
:1044A00032D091505040E695001CCAF72BD0FE2F19
:1044B00029D0660F771F881FBB1F261737074807AD
:1044C000AB07B0E809F0BB0B802DBF01FF27935865
:1044D0005F4F3AF09E3F510578F00C9413210C94F5
:1044E0005E215F3FE4F3983ED4F386957795679518
:1044F000B795F7959F5FC9F7880F911D969587959A
:1045000097F90895E1E0660F771F881FBB1F6217B8
:1045100073078407BA0720F0621B730B840BBA0B76
:10452000EE1F88F7E09508950E949B226894B111D0
:104530000C945E2108950E94432188F09F5798F0C3
:10454000B92F9927B751B0F0E1F0660F771F881F98
:10455000991F1AF0BA95C9F714C0B13091F00E94B2
:104560005D21B1E008950C945D21672F782F882795
:10457000B85F39F0B93FCCF3869577956795B395D9
:10458000D9F73EF490958095709561957F4F8F4F48
:104590009F4F08950E94822008F48FEF08950E9493
:1045A0008220880B990B0895DB018F939F930E94C3
:1045B0006421BF91AF91A29F800D911DA39F900D8B
:1045C000B29F900D11240895A1E21A2EAA1BBB1BC5
:1045D000FD010DC0AA1FBB1FEE1FFF1FA217B307CF
:1045E000E407F50720F0A21BB30BE40BF50B661FE5
:1045F000771F881F991F1A9469F7609570958095A9
:1046000090959B01AC01BD01CF010895EE0FFF1FF6
:104610000590F491E02D09940F93083090F0982FB5
:10462000872F762F652F542F432F322F22270850A4
:10463000F4CF220F331F441F551F661F771F881F9B
:10464000991F0A95B2F70F91089597FB10F81694E9
:1046500000080F93083098F00850232F342F452F6F
:10466000562F672F782F892F902DF4CF059497958B
:1046700087957795679557954795379527950A9527
:10468000AAF70F910895CF93DF938230910510F42C
:1046900082E090E0E091EB08F091EC0820E030E05F
:1046A000C0E0D0E0309711F140815181481759079F
:1046B000C0F04817590761F482819381209719F05F
:1046C0009B838A832BC09093EC088093EB0826C0D1
:1046D0002115310519F04217530718F49A01BE014C
:1046E000DF01EF010280F381E02DDCCF21153105E0
:1046F00009F1281B390B2430310590F412968D9165
:104700009C9113976115710521F0FB0193838283BE
:1047100004C09093EC088093EB08FD01329644C0EE
:10472000FD01E20FF31F81939193225031092D93E4
:104730003C933AC02091E9083091EA08232B41F4D8
:1047400020911501309116013093EA082093E90871
:1047500020911301309114012115310541F42DB739
:104760003EB74091170150911801241B350BE09181
:10477000E908F091EA08E217F307A0F42E1B3F0BBB
:104780002817390778F0AC014E5F5F4F24173507C3
:1047900048F04E0F5F1F5093EA084093E908819359
:1047A000919302C0E0E0F0E0CF01DF91CF91089556
:1047B0000F931F93CF93DF93009709F48CC0FC01F4
:1047C0003297138212820091EB081091EC080115C8
:1047D000110581F420813181820F931F2091E90816
:1047E0003091EA082817390779F5F093EA08E09341
:1047F000E90871C0D80140E050E0AE17BF0750F49F
:1048000012962D913C911397AD012115310509F1B7
:10481000D901F3CF9D01DA01338322836081718155
:10482000860F971F8217930769F4EC01288139815D
:10483000260F371F2E5F3F4F318320838A819B8154
:1048400093838283452B29F4F093EC08E093EB08E3
:1048500042C01396FC93EE931297ED014991599142
:104860009E01240F351FE217F30771F480819181B7
:10487000840F951F029611969C938E93828193814B
:1048800013969C938E931297E0E0F0E0D801129675
:104890008D919C911397009719F0F8018C01F6CF38
:1048A0008D919C9198012E5F3F4F820F931F209115
:1048B000E9083091EA082817390769F4309729F494
:1048C0001092EC081092EB0802C01382128210932F
:1048D000EA080093E908DF91CF911F910F910895A5
:1048E000A0E0B0E0E6E7F4E20C947321EC0100975D
:1048F00021F4CB010E944323B8C0FC01E60FF71F4F
:104900009C0122503109E217F30708F4ACC0D90129
:104910000D911C91119706171707B0F0053011057E
:1049200008F49FC0C80104978617970708F499C038
:1049300002501109061B170B019311936D937C9381
:10494000CF010E94D8238DC05B01A01AB10A4C018F
:10495000800E911EA091EB08B091EC0840E050E071
:10496000E12CF12C109709F44AC0A815B905D1F52E
:104970006D907C901197630182E0C80ED11CCA141F
:10498000DB0480F1A3014A195B096A0182E0C80EC9
:10499000D11C1296BC9012971396AC91B5E0CB1631
:1049A000D10440F0B282A38351834083D9016D9337
:1049B0007C930AC00E5F1F4FC301800F911FF90146
:1049C00091838083EB2DFA2FE114F10431F0D701AC
:1049D0001396FC93EE93129744C0F093EC08E09387
:1049E000EB083FC08D919C9111974817590708F427
:1049F000AC017D0112960D90BC91A02DB3CF80919A
:104A0000E9089091EA0888159905E1F446175707D7
:104A1000C8F48091130190911401009741F48DB76F
:104A20009EB74091170150911801841B950BE81710
:104A3000F907C8F4F093EA08E093E908F9017183F3
:104A400060830FC0CB010E9443237C01009759F083
:104A5000A801BE010E943F25CE010E94D823C701B4
:104A600004C0CE0102C080E090E0CDB7DEB7EEE03A
:104A70000C948F2181E090E0F8940C94F027FB01D6
:104A8000DC0102C001900D9241505040D8F70895CA
:104A9000FB01DC0101900D920020E1F70895AEE0EA
:104AA000B0E0E5E5F5E20C947D210D891E8986E0F4
:104AB0008C831A8309838FEF9FE79E838D83AE01DA
:104AC000475E5F4F6F89788DCE0101960E947225F7
:104AD0002F813885F801E20FF31F10822E96E4E053
:104AE0000C949921ACE0B0E0E8E7F5E20C946F217A
:104AF0007C016B018A01FC0117821682838181FF90
:104B0000BDC1CE0101964C01F7019381F60193FDE1
:104B1000859193FF81916F01882309F4ABC18532A0
:104B200039F493FD859193FF81916F01853229F4CA
:104B3000B70190E00E945A27E7CF512C312C20E09A
:104B40002032A0F48B3269F030F4803259F0833295
:104B500069F420612CC08D3239F0803339F4216042
:104B600026C02260246023C0286021C027FD27C002
:104B700030ED380F3A3078F426FF06C0FAE05F9E39
:104B8000300D1124532E13C08AE0389E300D1124AD
:104B9000332E20620CC08E3221F426FD6BC12064BE
:104BA00006C08C3611F4206802C0883641F4F60144
:104BB00093FD859193FF81916F018111C1CF982F52
:104BC0009F7D9554933028F40C5F1F4FFFE3F983CA
:104BD0000DC0833631F0833771F0833509F05BC047
:104BE00022C0F801808189830E5F1F4F44244394C3
:104BF000512C540115C03801F2E06F0E711CF80100
:104C0000A080B18026FF03C0652D70E002C06FEF69
:104C10007FEFC5012C870E944F272C0183012C8533
:104C20002F77222E17C03801F2E06F0E711CF801A9
:104C3000A080B18026FF03C0652D70E002C06FEF39
:104C40007FEFC5012C870E9444272C012C8520680A
:104C5000222E830123FC1BC0832D90E048165906A9
:104C6000B0F4B70180E290E00E945A273A94F4CF62
:104C7000F50127FC859127FE81915F01B70190E046
:104C80000E945A2731103A94F1E04F1A510841140A
:104C9000510471F7E5C0843611F0893639F5F80111
:104CA00027FF07C060817181828193810C5F1F4F54
:104CB00008C060817181072E000C880B990B0E5F74
:104CC0001F4F2F76722E97FF09C090958095709593
:104CD00061957F4F8F4F9F4F2068722E2AE030E002
:104CE000A4010E949227A82EA81844C0853729F451
:104CF0002F7EB22E2AE030E025C0F22FF97FBF2EA2
:104D00008F36C1F018F4883579F0B4C0803719F0C7
:104D1000883721F0AFC02F2F2061B22EB4FE0DC016
:104D20008B2D8460B82E09C024FF0AC09F2F966087
:104D3000B92E06C028E030E005C020E130E002C016
:104D400020E132E0F801B7FE07C060817181828105
:104D500093810C5F1F4F06C06081718180E090E0FD
:104D60000E5F1F4FA4010E949227A82EA818FB2DAA
:104D7000FF777F2E76FE0BC0372D3E7FA51450F4B3
:104D800074FE0AC072FC08C0372D3E7E05C0BA2CE6
:104D9000372D03C0BA2C01C0B52C34FF0DC0FE0165
:104DA000EA0DF11D8081803311F4397E09C032FF94
:104DB00006C0B394B39404C0832F867809F0B394EB
:104DC00033FD13C030FF06C05A2CB31418F4530C33
:104DD0005B18B32CB31468F4B70180E290E03C8711
:104DE0000E945A27B3943C85F5CFB31410F43B18B6
:104DF00001C0312C34FF12C0B70180E390E03C8742
:104E00000E945A273C8532FF17C031FD03C088E756
:104E100090E002C088E590E0B7010CC0832F86784F
:104E200059F031FF02C08BE201C080E237FD8DE214
:104E3000B70190E00E945A27A51438F4B70180E327
:104E400090E00E945A275A94F7CFAA94F401EA0DF1
:104E5000F11D8081B70190E00E945A27A110F5CF83
:104E6000332009F451CEB70180E290E00E945A2726
:104E70003A94F6CFF7018681978102C08FEF9FEFBA
:104E80002C96E2E10C948B21FC010590615070405E
:104E90000110D8F7809590958E0F9F1F0895FC0103
:104EA0006150704001900110D8F7809590958E0F59
:104EB0009F1F08950F931F93CF93DF93FB012381CF
:104EC00021FD03C08FEF9FEF28C022FF16C046814F
:104ED0005781248135814217530744F4A081B18161
:104EE0009D012F5F3F4F318320838C932681378133
:104EF0002F5F3F4F3783268310C0EB01092F182FF8
:104F00000084F185E02D0995892BE1F68E819F8142
:104F100001969F838E83812F902FDF91CF911F91D8
:104F20000F910895FA01AA27283051F1203181F11B
:104F3000E8946F936E7F6E5F7F4F8F4F9F4FAF4FA1
:104F4000B1E03ED0B4E03CD0670F781F891F9A1FB4
:104F5000A11D680F791F8A1F911DA11D6A0F711D68
:104F6000811D911DA11D20D009F468943F912AE074
:104F7000269F11243019305D3193DEF6CF0108955C
:104F8000462F4770405D4193B3E00FD0C9F7F6CF8D
:104F9000462F4F70405D4A3318F0495D31FD405255
:104FA000419302D0A9F7EACFB4E0A69597958795EB
:104FB00077956795BA95C9F70097610571050895CA
:104FC0009B01AC010A2E0694579547953795279576
:104FD000BA95C9F7620F731F841F951FA01D08950E
:104FE00011E0C2E6D1E004C0FE010E940623219632
:0A4FF000C336D107C9F7F894FFCFCC
:104FFA0000C18081000000FFFFFFFF00E100000008
:10500A000000000000ED08800000000000B80192D6
:10501A00025202DF0100000000F50AA80F160B0B6E
:10502A000B1B0B350B530B000000006B0400000038
:10503A00004003F802DA024502E31BF6FF0000D63D
:10504A00068D014D024C02FB01ED1B0A0200000015
:10505A000050025002500245022D2D2D2D2D2D2DCE
:10506A002D2D2D2D2D2D2D2D2D2D2D2D2D2D2D2D66
:10507A002D2D2D2D2D2D2D2D2D2D2D2D2D2D2D2D56
:10508A002D2D2D2D2D2D2D0025730A20417264758D
:10509A00696E6F204D43452052656D6F7465202DF2
:1050AA002056657273696F6E3A2025730A456E61E0
:1050BA00626C696E67204952206465636F64657229
:1050CA002E2E2E0A0020646F6E652E0A202573008C
:1050DA0025730A20202020504320506F77657220C4
:1050EA005374617475733A0A25730A0A002E2050A4
:1050FA006F77657220697320004F4E0A0A004F4687
:10510A00460A0A0020204C61737420495220436FDA
:10511A0064652052656365697665643A2000202DCE
:10512A00203078005043206973204F4E2E20476F5D
:10513A007420506F776572204F666620636F6465CE
:10514A003A20002E205475726E696E6720504320F3
:10515A006F66662E0A002E2069676E6F7265642C70
:10516A002064657669636520616C72656164792083
:10517A006F66662E0A005043206973204F46462EFA
:10518A0020476F7420506F776572204F6E20636FCF
:10519A0064653A20002E205475726E696E6720503D
:1051AA0043206F6E2E0A002E2069676E6F72656447
:1051BA002C2064657669636520616C726561647927
:1051CA00206F6E2E0A005265636569766564204910
:1051DA005220636F64653A20002E0A0A2053656ED6
:1051EA0064696E67200020636F6D6D616E642E0ABC
:1051FA000A002020495220436F6465205265636586
:10520A00697665643A2000495220636F64652074A8
:10521A006F6F206C6F6E672E204564697420495247
:10522A0072656D6F7465496E742E6820696E2049C7
:10523A005252656D6F7465204C6962726172792091
:10524A00616E6420696E63726561736520524157AD
:10525A004255460A00456E636F64696E6720203ABC
:10526A002000436F64652020202020203A2000205F
:10527A0028002062697473290A0A0054696D696EEC
:10528A00675B005D3A200A002020202020002B00C6
:10529A002C2000756E7369676E656420696E7420D0
:1052AA002000726177446174615B005D203D207B60
:1052BA00002C007D3B0020202F2F2000756E736983
:1052CA00676E656420696E74202061646472203D93
:1052DA00203078003B0A0A00756E7369676E656450
:1052EA0020696E74202064617461203D203078004A
:1052FA006E616E00696E66006F766600554E4B4EA3
:10530A004F574E004E454300534F4E5900524335B6
:10531A000052433600444953480053484152500012
:10532A004A56430053414E594F004D495453554232
:10533A00495348490053414D53554E47004C470085
:10534A005748594E54455200414957415F52435FAD
:10535A00543530310050414E41534F4E4943004479
:10536A00454E4F4E0041637469766174696E6720D9
:10537A00504320706F776572207377697463682071
:10538A00666F7220323530206D732E2E2E0A00443D
:10539A006F6E652E0A0A25730A0A004C45465400A8
:1053AA0052494748540052455455524E00544142BE
:1053BA00004241434B53504143450045534300503B
:1053CA00524F4752414D204755494445004B455994
:1053DA005F49202D20494E464F004D454E550053FA
:1053EA00544F5000504C41592F504155534500528B
:1053FA0045434F52440052455700465744005052C5
:10540A004556494F5553004E45585400535542543A
:10541A0049544C4500320033003400370038003913
:10542A000030004348414E4E454C205550004348F9
:10543A00414E4E454C20444E004D55544500564F62
:10544A004C554D455F555000564F4C554D455F44A0
:06545A004F574E003A001E
:00000001FF
